:100000006F90C043130000001300000013000000B5
:100010001300000013000000130000001300000094
:100020001300000013000000130000001300000084
:08003000130000007300100032
:100038000000000000000000C8900000D8900000F8
:100048000000000082930000000000000000000093
:100058008493000086930000000000000000000068
:1000680088930000000000008A9300000000000050
:100078008C9300008E9300009093000092930000F0
:100088009493000096930000008600007486000098
:10009800E88600005C870000D0870000A29300007B
:1000A800A4930000A6930000A8930000AA93000060
:1000B800AC930000AE930000B0930000B293000030
:1000C800B4930000B6930000B89300004488000081
:1000D800BC930000088A0000C0930000C29300008F
:1000E800888A0000008B0000728C0000CA93000010
:1000F800CC930000CE930000D0930000D293000070
:10010800D493000054810000D88100005C82000074
:100118001C890000DE930000E0930000E2930000D9
:10012800508F0000E6930000E8930000EA93000077
:10013800EC930000EE930000F28C0000F2930000B4
:10014800E082000064830000728D0000C68E00000B
:10015800FC930000FE93000000940000029400004D
:100168000494000006940000089400000A9400001B
:100178000C9400000E94000010940000D0BA000007
:10018800149400001694000070850000E6830000B7
:100198006A840000F484000020940000D08F0000DE
:1001A8002494000026940000289400005090000039
:1001B8002C9400002E94000030940000329400002B
:1001C8003494000036940000389400003A940000FB
:1001D8000000000000000000000000000000000017
:1001E8000000000000000000000000000000000007
:0801F8000000000000000000FF
:100200003D432A876373C3029377F700BDEFADE5E3
:10021000937606FF3D8ABA960CC34CC30CC74CC7F5
:100220004107E36BD7FE11E28280B306C3408A0622
:100230009702000096966780A6002307B700A306E2
:10024000B7002306B700A305B7002305B700A30432
:10025000B7002304B700A303B7002303B700A3022A
:10026000B7002302B700A301B7002301B700A30022
:10027000B7002300B700828093F5F50F93968500B1
:10028000D58D93960501D58D61B79396270097027A
:10029000000096968682E78086FA9680C1171D8FA9
:1002A0003E96E374C3F8A5B7797106D622D4001838
:1002B000232EA4FC8327C4FDB18393F7F70FBD8BD6
:1002C000A307F4FE8327C4FDA18393F7F70FBD8B2B
:1002D0002307F4FE0347F4FEB70700200A079387BD
:1002E0008738BA979C430347E4FE91460546BA8592
:1002F0003E85EF90C0450347F4FEB70700200A078C
:1003000093878738BA979C4385453E85EF90E03FB9
:1003100001000347F4FEB70700200A0793878738D8
:10032000BA979C4389453E85EF90E066AA87F5D34E
:100330000347F4FEB70700200A0793878738BA9768
:100340009C43FC478346F4FE1387818B3697034713
:100350000700B3D7E700C207C1833E85B2502254DD
:1003600045618280797106D622D40018232EA4FC20
:10037000AE87A30DF4FC0347B4FD13060005ED673B
:10038000938547FC3A85EF702005232404FEA307DC
:1003900004FE05A00325C4FD013FAA873E878327ED
:1003A00084FEBA972324F4FE8347F4FE8507A3074F
:1003B000F4FE0347F4FE8347B4FDE36DF7FC834787
:1003C000B4FD032784FEB357F7022324F4FE8327EA
:1003D00084FEC207C1833E85B250225445618280AB
:1003E0005D7186C6A2C48008232EA4FA232CB4FA19
:1003F000232604FC232804FC232A04FC232C04FCCD
:10040000232E04FC232004FE232204FE232404FEC6
:100410008327C4FBB18393F7F70FBD8BA307F4FECB
:100420008327C4FB93F7F70F8146014681453E853C
:10043000EF00B0338347F4FE99E7854513050020AC
:10044000EF90907D19A80347F4FE85476317F700E6
:10045000854513050040EF90307C0145EF90B04694
:100460000347F4FEB70700200A0793878738BA9737
:100470009C433E85EF902005232604FC232804FCA2
:10048000232A04FCB7070E00232CF4FC232E04FCC3
:1004900085472300F4FE0347F4FEB70700200A0750
:1004A00093878738BA979C431307C4FCBA853E8567
:1004B000EF9060070347F4FEB70700200A07938711
:1004C0008738BA979C4385453E85EF90E0150347F2
:1004D000F4FEB70700200A0793878738BA979C4332
:1004E00081453E85EF90C04E0347F4FEB7070020DC
:1004F0000A0793878738BA979C433E85EF90A016EA
:1005000001000347F4FEB70700200A0793878738E6
:10051000BA979C433E85EF902017AA87FDF30347C7
:10052000F4FEB70700200A0793878738BA979C43E1
:100530003E85EF90601801000347F4FEB7070020E6
:100540000A0793878738BA979C433E85EF90E01857
:10055000AA87FDF38346F4FE832784FB13F7F70F86
:100560009387818BB6972380E7000100B64026442D
:1005700061618280011122CE00102326A4FE232473
:10058000B4FE37F600E04C4237F600E0F9994CC271
:100590000326C4FEB2860147032684FEB2870148C3
:1005A00037F600E03305F702B305D802AA95338584
:1005B000F602B3B3F6022A83B3877500BE832328FD
:1005C0006600232A7600B7F700E09843B7F700E00B
:1005D0001367070198C3B7F700E09843B7F700E047
:1005E0001367170298C30100B7F700E0DC4313F765
:1005F00017008547E31AF7FEB7F700E09843B7F70F
:1006000000E0799B98C3010072440561828001116A
:1006100006CE22CC0010AA8E2E8E32833685BA8565
:100620003E86C2864687F687A307F4FEF287230735
:10063000F4FE9A87A306F4FEAA872306F4FEAE878B
:10064000A305F4FEB2872305F4FEB687A304F4FEE7
:10065000BA872304F4FE8347F4FE93068004014620
:1006600081453E85EF0070108347E4FE93068004C9
:10067000014681453E85EF00500F8347D4FE930627
:100680008004014681453E85EF00300E8347C4FE5D
:1006900093068004014681453E85EF00100D834797
:1006A000B4FE93068004014681453E85EF00F00BC1
:1006B0008347A4FE93068004014681453E85EF00F2
:1006C000D00A834794FE93068004014681453E8507
:1006D000EF00B009834784FE9306800401468145FC
:1006E0003E85EF009008834744009306800401464E
:1006F00081453E85EF007007834704009306800420
:10070000014681453E85EF005006834784009306ED
:100710008004014681453E85EF0030050100F2402E
:10072000624405618280011106CE22CC001023268E
:10073000A4FE2324B4FEB28736872313F4FEBA87BF
:100740002312F4FE85450965EF90B048B7070550C0
:1007500083C7070013F7F70FB70705501377F7FCA8
:100760001377F70F2380E700B707055083C707000B
:1007700013F7F70FB7070550136727041377F70F21
:100780002380E700B707055083C7170013F7F70F5B
:10079000B7070550659B1377F70FA380E700B707EE
:1007A0000550035744FE2392E700B707055003574F
:1007B00064FE2393E700B70705500327C4FE98C7DC
:1007C000B7070550032784FED8C7B707055083C76E
:1007D000170013F7F70FB70705501377F7031377D1
:1007E000F70FA380E70037070550B7070550034709
:1007F00017001377F70FA380E700B707055083C7EB
:10080000270013F7F70FB707055013674700137753
:10081000F70F2381E700B707055083C7170013F7C9
:10082000F70FB7070550136717001377F70FA3806B
:10083000E700B707055083C7070013F7F70FB7079F
:100840000550136717001377F70F2380E7008D45D6
:1008500013056005EF70100613056005EF70D001F9
:100860000100F240624405618280797106D622D48B
:100870000018232EA4FC231704FE231604FE0327CE
:10088000C4FDA54763E0E70C8327C4FD1397270049
:10089000F16793878798BA979C438287B73701405F
:1008A000938707C083D74702C207C1832317F4FE8B
:1008B00069A8B707004083D74702C207C18323173F
:1008C000F4FE61A0B70700409387074083D7470233
:1008D000C207C1832317F4FE8DA8B7170040938782
:1008E000078083D74702C207C1832317F4FEB1A84C
:1008F000B7170040938707C083D74702C207C18359
:100900002317F4FE99A0B73701409387074083D798
:100910004702C207C1832317F4FE05A8B757014059
:10092000938707C083D74702C207C1832317F4FE0A
:1009300029A8B757014083D74702C207C1832317AD
:10094000F4FE21A0231704FE0100B707002013873F
:1009500007008327C4FDBA9783C7070013F7F70F73
:100960009307F00F6317F7008357E4FE2316F4FE96
:100970002DA8B7070020138707008327C4FDBA9767
:1009800083C7070093F7F70F3E85152BAA8791EBD6
:100990008357E4FEB307F040C207C1832316F4FE79
:1009A00029A08357E4FE2316F4FE8317C4FE3E8578
:1009B000B250225445618280011122CE00102326BC
:1009C000A4FE0327C4FEA54763E0E7088327C4FE0F
:1009D00013972700F1679387079BBA979C438287F9
:1009E000B7370140938707C023920702B9A8B7071A
:1009F00000402392070291A8B70700409387074061
:100A00002392070299A0B71700409387078023928B
:100A1000070225A8B7170040938707C02392070253
:100A20002DA0B7370140938707402392070231A8D2
:100A3000B7570140938707C02392070239A0B757E1
:100A400001402392070211A00100010072440561D8
:100A50008280397106DE22DC80002326A4FC232458
:100A6000B4FC2322C4FC232604FE91450325C4FCC8
:100A7000EF20A01CAA873E871306100DED67938513
:100A800007023A85EF6050158327C4FC1397C7000F
:100A9000832784FC7D8F8327C4FCB207B307F7400C
:100AA00093B7170093F7F70F3E871306200DED67F6
:100AB000938507023A85EF6030128327C4FC1397B1
:100AC000C700832744FC7D8F8327C4FCB207B3078C
:100AD000F74093B7170093F7F70F3E871306300DD3
:100AE000ED67938507023A85EF60100F0325C4FC7C
:100AF000EF20001B832784FC93F7F70F93068004F5
:100B0000014681453E859521832744FC93F7F70FE5
:100B100093068004014681453E858129832784FC14
:100B200013F7F70FB7070020938607008327C4FC4D
:100B3000B6972380E7000327C4FCA54763E0E708D6
:100B40008327C4FC13972700F1679387879DBA9783
:100B50009C438287B7370140938707C02324F4FE64
:100B60008DA0B70700402324F4FEA1A8B7070040DA
:100B7000938707402324F4FEA9A0B717004093876A
:100B800007802324F4FE35A8B7170040938707C0D9
:100B90002324F4FE3DA0B737014093870740232468
:100BA000F4FE05A0B7570140938707C02324F4FE45
:100BB00009A8B75701402324F4FE21A08547232626
:100BC000F4FE85450545EF903005832784FC13D757
:100BD00087008D47631AF7008545B7071600138510
:100BE000070CEF90A027E5A8832784FC13D7870084
:100BF000C547631AF7008545B70718001385071026
:100C0000EF90C025E9A8832784FC13D787009307BA
:100C10002002631AF7008545B7171A00138507806D
:100C2000EF90C0236DA8832784FC13D78700930718
:100C30003002631AF7008545B7171A00138507C0FD
:100C4000EF90C02169A8832784FC13D787009307FE
:100C500010036317F70085450565EF90202041A03C
:100C6000832784FC13D7870093071007631AF700C4
:100C70008545B707008013854700EF90201E85A0AB
:100C8000832784FC13D7870093073008631AF70083
:100C90008545B707138013850701EF90201C81A0BD
:100CA000832784FC13D7870093071009631AF70082
:100CB0008545B707158013850702EF90201A05A018
:100CC000832784FC13D78700930730096319F70043
:100CD0008545B707158013850704EF9020188327F3
:100CE000C4FEA9EB232E04FC232004FE231204FEE1
:100CF0009307C4FD3E85EFA00025231E04FCFD578D
:100D00002310F4FE231104FE231F04FC230204FE1F
:100D10009307C4FDBE85032584FEEF90F01D930567
:100D20000006032584FEEFA040388545032584FE98
:100D3000EFA020250100F250625421618280797178
:100D400006D622D40018232EA4FC232CB4FC8545FF
:100D50000545EF90606C93068004054681450325A8
:100D6000C4FD21248327C4FD958313F7F70F832740
:100D7000C4FD93F7F70FFD8B93F7F70FBE853A8508
:100D8000EF90402A232004FE232204FE232404FEA5
:100D9000232604FE8327C4FDFD8B0547B317F70008
:100DA0002320F4FE232204FE832784FD2324F4FE63
:100DB00085472326F4FE930704FE3E85EF80904589
:100DC0008327C4FDFD8B89E75945EF70E02ABDA05C
:100DD0008327C4FDF98B89E75D45EF70E029B9A849
:100DE0008327C4FD13F7F701894763E6E7006145F0
:100DF000EF708028A1A08327C4FDF18B89E76545AA
:100E0000EF70802725A88327C4FD13F7F7019147CA
:100E100063E6E7006945EF7020260DA08327C4FD37
:100E200013F7F701A54763E7E70013057002EF70BA
:100E3000A02429A013058003EF7000240100B25004
:100E4000225445618280011122CE00102326A4FE87
:100E5000AE87A305F4FE8347B4FE85CB8327C4FE8B
:100E6000BD8B0547B317F70093960701C18283270F
:100E7000C4FE13D75700B70700200A079387C7009F
:100E8000BA979C43368798CB3DA08327C4FEBD8B81
:100E90000547B317F70093960701C1828327C4FE65
:100EA00013D75700B70700200A079387C700BA97E0
:100EB0009C433687D8CB01007244056182800111C2
:100EC00022CE00102326A4FE8327C4FE958313F7A9
:100ED0007700B70700200A079387C700BA979C439B
:100EE0009C470327C4FE7D8B85463397E600F98F28
:100EF000B337F00093F7F70F3E85724405618280A7
:100F0000797122D60018232EA4FC8327C4FD958373
:100F100093F7F70F9D8BA307F4FE8327C4FD93F788
:100F2000F70FFD8B2307F4FE0347F4FEB7070020FD
:100F30000A079387C700BA979C43D8478347E4FEC4
:100F40008546B397F600C207C1833E868346F4FE0A
:100F5000B70700208A069387C700B6979C43318F56
:100F6000D8C70100325445618280797106D622D4F7
:100F70000018232EA4FC232CB4FCB2872328D4FC15
:100F8000A30BF4FC232004FE232204FE232404FEEE
:100F90008327C4FD958393F7F70F9D8BA307F4FE7A
:100FA0008327C4FD93F7F70FFD8B2307F4FE8347D8
:100FB000F4FE91E785451145EF90004691A803475F
:100FC000F4FE85476317F70085452145EF90C0443F
:100FD00081A00347F4FE89476317F7008545414523
:100FE000EF90804335A00347F4FE8D476318F70068
:100FF000854513050002EF90204219A80347F4FE2F
:1010000091476317F700854513050004EF90C04032
:101010008347E4FE0547B317F700C207C1832310D7
:10102000F4FE032784FD85476317F702832704FD39
:10103000C207C183A183C207C18389E78D472322E9
:10104000F4FE11A8832704FDC207C183A183C20750
:10105000C1832322F4FE832704FDC207C18393F7D3
:10106000F70F2324F4FE0347F4FEB70700200A0716
:101070009387C700BA979C43130704FEBA853E8541
:10108000EF80B037032784FD85476319F7020347D4
:10109000F4FEB70700200A079387C700BA97944366
:1010A0008347E4FE0547B317F700C207C183034730
:1010B00074FD3A86BE853685EF80D0560100B25069
:1010C0002254456182801D7186CEA2CC80102326D9
:1010D000A4FA2324B4FA85450325C4FAEF10F035A9
:1010E000AA873E871306D006ED679385870A3A855F
:1010F000EF60802E832784FAB337F00093F7F70F61
:101100003E871306F006ED679385870A3A85EF6000
:10111000A02C832784FABD832315F4FE8357A4FEF5
:1011200085073E87832784FAB3D7E7022314F4FEAA
:101130000325C4FAEF10D036B7370140938707C0B4
:101140002326F4FE0327C4FAA54763ECE7088327A8
:10115000C4FA13972700F167938707A0BA979C43B7
:101160008287B7370140938707C02326F4FE95A8EE
:10117000B70700402326F4FEADA0B70700409387D1
:1011800007402326F4FEB1A8B717004093870780D5
:101190002326F4FEB9A0B7170040938707C0232683
:1011A000F4FE81A0B71700402326F4FE1DA8B71750
:1011B0000040938707402326F4FE25A0B73701405F
:1011C000938707402326F4FE29A8B7570140938749
:1011D00007C02326F4FE31A0B75701402326F4FEB2
:1011E0000100232E04FC232004FE231204FE835757
:1011F00084FE2310F4FE8357A4FE231EF4FC231167
:1012000004FE231F04FC230204FE9307C4FDBE85D5
:101210000325C4FEEF90404E054685450325C4FED8
:10122000EF90B06185450325C4FEEFA04021ED6736
:1012300003AE07081387070803234700138707082F
:1012400083288700138707080328C7001387070828
:10125000084B138707084C4B13870708104F138759
:101260000708544F13870708185393870708DC5360
:10127000232AC4FB232C64FA232E14FB232004FD11
:101280002322A4FC2324B4FC2326C4FC2328D4FC5E
:10129000232AE4FC232CF4FC8327C4FA93F7F70FEA
:1012A0008A07130704FFBA9783A747FC8D453E853D
:1012B000EF6050608327C4FA8A07130704FFBA97C8
:1012C00083A747FC3E85EF60305B85450325C4FE60
:1012D000EF90304B0100F6406644256182807971C1
:1012E00006D622D40018232EA4FC232CB4FC0327FA
:1012F00084FD896793871771B337F70093F7F70F6A
:101300003E8713065003ED67938547103A85EF60DB
:10131000A00CB7370140938707C02326F4FE83272C
:10132000C4FDC183BD8B2547636EF7061397270065
:10133000F167938787A2BA979C438287B7370140AA
:10134000938707C02326F4FEB1A8B70700402326E1
:10135000F4FE89A8B7070040938707402326F4FED0
:1013600091A0B7170040938707802326F4FE1DA89D
:10137000B7170040938707C02326F4FE25A0B73790
:101380000140938707402326F4FE29A8B757014060
:10139000938707C02326F4FE31A0B75701402326C8
:1013A000F4FE01008327C4FE83D7C7022315F4FE91
:1013B0000357A4FE832784FD3307F70289679387C9
:1013C0000771B357F7022314F4FE8327C4FDA183EA
:1013D0008D8B81EB8327C4FE035784FE239AE7029B
:1013E000A9A88327C4FDA18313F737008547631994
:1013F000F7008327C4FE035784FE239CE70235A829
:101400008327C4FDA18313F7370089476319F700C9
:101410008327C4FE035784FE239EE70239A883274F
:10142000C4FDA18313F737008D476318F7008327A6
:10143000C4FE035784FE2390E7040100B2502254F7
:10144000456182805D7186C6A2C48008232EA4FAFD
:10145000232CB4FA232AC4FA8327C4FBC1838D4505
:101460003E85EF10807DAA873E871306D00AED6780
:10147000938547103A85EF503076032744FB896700
:1014800093871771B337F70093F7F70F3E8713066B
:10149000F00AED67938547103A85EF50F073232EDD
:1014A00004FC232004FE231204FE232604FC23282C
:1014B00004FC232A04FC232C04FC231504FE8327AC
:1014C000C4FBC183BD8B3E85EF10807D8327C4FBA9
:1014D00093F7F70F93068031014685453E857134B9
:1014E00085450545EF805073B7370140938707C0A6
:1014F0002326F4FE8327C4FBC183BD8B2547636E7F
:10150000F70613972700F167938707A5BA979C43BF
:101510008287B7370140938707C02326F4FEB1A81E
:10152000B70700402326F4FE89A8B7070040938739
:1015300007402326F4FE91A0B71700409387078049
:101540002326F4FE1DA8B7170040938707C0232663
:10155000F4FE25A0B7370140938707402326F4FE09
:1015600029A8B7570140938707C02326F4FE31A06E
:10157000B75701402326F4FE01008327C4FB13D78D
:10158000C7008D47631AF7008545B7071600138516
:10159000070CEF80B00C15AA8327C4FB13D7C70034
:1015A000C547631AF7008545B7071800138507106C
:1015B000EF80D00A19AA8327C4FB13D7C700C947F5
:1015C000631AF7008545B707180013850720EF80D9
:1015D000F008E5A88327C4FB13D7C700CD47631ADB
:1015E000F7008545B707180013850730EF8010070F
:1015F000E9A88327C4FB13D7C70093072002631A07
:10160000F7008545B7171A0013850780EF8010058E
:101610006DA88327C4FB13D7C70093073002631A52
:10162000F7008545B7171A00138507C0EF80100330
:1016300069A88327C4FB13D7C70093071003631758
:10164000F70085450565EF80700141A08327C4FB45
:1016500013D7C70093071007631AF7008545B7072C
:10166000008013854700EF80607F85A08327C4FB3F
:1016700013D7C70093073008631AF7008545B707EB
:10168000138013850701EF80607D81A08327C4FB51
:1016900013D7C70093071009631AF7008545B707EA
:1016A000158013850702EF80607B05A08327C4FBAC
:1016B00013D7C700930730096319F7008545B707AB
:1016C000158013850704EF80607903A74182832783
:1016D00084FBB357F702C1832315F4FE03A74182AD
:1016E0008357A4FE8507BE86832784FBB387F60253
:1016F000B357F7022314F4FE035784FE832744FBF9
:101700003307F702896793870771B357F7022313EB
:10171000F4FE835784FEFD17C207C1832310F4FE35
:101720008357A4FE231EF4FC231104FE231F04FC94
:10173000230204FE9307C4FDBE850325C4FEEF808B
:10174000B07B930700072316F4FC85472317F4FCAE
:10175000231804FC835764FE2319F4FC8947231AD9
:10176000F4FC8947231BF4FC231C04FC231D04FC0C
:101770008327C4FBA1838D8B9DE39307C4FCBE85A7
:101780000325C4FEEF90200FA1450325C4FEEF9072
:10179000101B91450325C4FEEF90302F45A08327F1
:1017A000C4FBA18313F7370085476315F70293073E
:1017B000C4FCBE850325C4FEEF90A025A1450325EA
:1017C000C4FEEF90901C930500400325C4FEEF90EB
:1017D0009030ADA08327C4FBA18313F7370089475E
:1017E0006314F7029307C4FCBE850325C4FEEF9083
:1017F0006040A1450325C4FEEF90D01E914503250E
:10180000C4FEEF90B0321DA88327C4FBA18313F759
:1018100037008D476314F7029307C4FCBE85032588
:10182000C4FEEF90E05AA1450325C4FEEF9050207E
:10183000930500400325C4FEEF9010348545032531
:10184000C4FEEF90807985450325C4FEEF90607358
:101850000100B640264461618280797106D622D4A7
:101860000018232EA4FC8327C4FDB337F00093F7A0
:10187000F70F3E8713061004ED67938507163A8528
:10188000EF5090358327C4FD9C43BD8B0547B317AC
:10189000F70093960701C1828327C4FD9C4313D7A9
:1018A0005700B70700200A079387C700BA979C43E1
:1018B000368798CB8327C4FDDC43BD8B0547B31720
:1018C000F70093960701C1828327C4FDDC4313D739
:1018D0005700B70700200A079387C700BA979C43B1
:1018E000368798CB8327C4FDDC472326F4FE01000E
:1018F0008327C4FE1387F7FF2326E4FEF5FB832727
:10190000C4FDDC43BD8B0547B317F7009396070171
:10191000C1828327C4FDDC4313D75700B7070020DB
:101920000A079387C700BA979C433687D8CB83278B
:10193000C4FDDC472324F4FE0100832784FE1387C3
:10194000F7FF2324E4FEF5FB8327C4FD9C43BD8BF6
:101950000547B317F70093960701C1828327C4FD9B
:101960009C4313D75700B70700200A079387C70087
:10197000BA979C433687D8CB0100B25022544561B8
:101980008280797106D622D40018232EA4FC8327E6
:10199000C4FDB337F00093F7F70F3E8713064005F9
:1019A000ED67938507163A85EF5010238327C4FD12
:1019B000DC43BD8B0547B317F70093960701C1823F
:1019C0008327C4FDDC4313D75700B70700200A075D
:1019D0009387C700BA979C433687D8CB8327C4FD2B
:1019E0009C43BD8B0547B317F70093960701C1824F
:1019F0008327C4FD9C4313D75700B70700200A076D
:101A00009387C700BA979C433687D8CB8327C4FDFA
:101A1000DC472326F4FE01008327C4FE1387F7FF6B
:101A20002326E4FEF5FB8327C4FD9C43BD8B0547BD
:101A3000B317F70093960701C1828327C4FD9C4327
:101A400013D75700B70700200A079387C700BA9734
:101A50009C43368798CB8327C4FDDC472324F4FEC0
:101A60000100832784FE1387F7FF2324E4FEF5FBA0
:101A70008327C4FDDC43BD8B0547B317F70093965E
:101A80000701C1828327C4FDDC4313D75700B70782
:101A900000200A079387C700BA979C43368798CBE4
:101AA0008327C4FDDC472322F4FE0100832744FE84
:101AB0001387F7FF2322E4FEF5FB0100B250225406
:101AC00045618280797106D622D40018232EA4FCA9
:101AD000AE87A30DF4FC8327C4FDB337F00093F762
:101AE000F70F3E8713069006ED67938507163A8534
:101AF000EF50900E8327C4FD9C43BD8B0547B31761
:101B0000F70093960701C1828327C4FD9C4313D736
:101B10005700B70700200A079387C700BA979C436E
:101B20003687D8CB8347B4FD95CB8327C4FDDC43F0
:101B3000BD8B0547B317F70093960701C182832732
:101B4000C4FDDC4313D75700B70700200A0793876B
:101B5000C700BA979C43368798CB0DA88327C4FD4E
:101B6000DC43BD8B0547B317F70093960701C1828D
:101B70008327C4FDDC4313D75700B70700200A07AB
:101B80009387C700BA979C433687D8CB8327C4FD79
:101B9000DC472326F4FE01008327C4FE1387F7FFEA
:101BA0002326E4FEF5FB8327C4FD9C43BD8B05473C
:101BB000B317F70093960701C1828327C4FD9C43A6
:101BC00013D75700B70700200A079387C700BA97B3
:101BD0009C43368798CB8327C4FDDC472324F4FE3F
:101BE0000100832784FE1387F7FF2324E4FEF5FB1F
:101BF0008327C4FD9C43BD8B0547B317F70093961D
:101C00000701C1828327C4FD9C4313D75700B70740
:101C100000200A079387C700BA979C433687D8CB22
:101C20008327C4FDDC43BD8B0547B317F7009396AC
:101C30000701C1828327C4FDDC4313D75700B707D0
:101C400000200A079387C700BA979C43368798CB32
:101C50000100B250225445618280797106D622D4A7
:101C60000018232EA4FC8327C4FDB337F00093F79C
:101C7000F70F3E8713065008ED67938507163A85E0
:101C8000EF508075A30704FE8327C4FD9C43BD8BE2
:101C90000547B317F70093960701C1828327C4FD58
:101CA0009C4313D75700B70700200A079387C70044
:101CB000BA979C433687D8CB8327C4FDDC43BD8BC2
:101CC0000547B317F70093960701C1828327C4FD28
:101CD000DC4313D75700B70700200A079387C700D4
:101CE000BA979C43368798CB8327C4FDDC472324CF
:101CF000F4FE0100832784FE1387F7FF2324E4FE0C
:101D0000F5FB8327C4FD9C43BD8B0547B317F70044
:101D100093960701C1828327C4FD9C4313D75700C4
:101D2000B70700200A079387C700BA979C433687F6
:101D300098CB8327C4FDDC472322F4FE01008327D0
:101D400044FE1387F7FF2322E4FEF5FB8327C4FD3F
:101D5000DC433E85EFF0AF96AA8781C78547A3078E
:101D6000F4FE8327C4FD9C43BD8B0547B317F700E2
:101D700093960701C1828327C4FD9C4313D7570064
:101D8000B70700200A079387C700BA979C43368796
:101D9000D8CB8327C4FDDC472320F4FE0100832732
:101DA00004FE1387F7FF2320E4FEF5FB8347F4FED0
:101DB0003E85B250225445618280797106D622D484
:101DC0000018232EA4FCAE87A30DF4FC8327C4FDCA
:101DD000B337F00093F7F70F3E871306700AED67ED
:101DE000938507163A85EF50205F930700F8A30705
:101DF000F4FE09AA0347B4FD8347F4FEF98F93F775
:101E0000F70F95CB8327C4FDDC43BD8B0547B31784
:101E1000F70093960701C1828327C4FDDC4313D7E3
:101E20005700B70700200A079387C700BA979C435B
:101E3000368798CB0DA88327C4FDDC43BD8B0547AF
:101E4000B317F70093960701C1828327C4FDDC43D3
:101E500013D75700B70700200A079387C700BA9720
:101E60009C433687D8CB8347F4FE8583A307F4FED3
:101E70008327C4FDDC472324F4FE0100832784FE6E
:101E80001387F7FF2324E4FEF5FB8327C4FD9C435F
:101E9000BD8B0547B317F70093960701C1828327CF
:101EA000C4FD9C4313D75700B70700200A07938748
:101EB000C700BA979C43368798CB8327C4FDDC477D
:101EC0002322F4FE0100832744FE1387F7FF232219
:101ED000E4FEF5FB8327C4FD9C43BD8B0547B31788
:101EE000F70093960701C1828327C4FD9C4313D753
:101EF0005700B70700200A079387C700BA979C438B
:101F00003687D8CB8347F4FEE39607EE0325C4FD5E
:101F1000A933AA87FD17B337F00093F7F70F3E8573
:101F2000B250225445618280397106DE22DC26DA05
:101F300080002326A4FCAE87A305F4FC8327C4FC01
:101F4000B337F00093F7F70F3E871306000CED67E9
:101F5000938507163A85EF502048A30704FEA14752
:101F60002307F4FE8327C4FC9C43BD8B0547B317AE
:101F7000F70093960701C1828327C4FC9C4313D7C3
:101F80005700B70700200A079387C700BA979C43FA
:101F90003687D8CB8327C4FCDC472324F4FE01001A
:101FA000832784FE1387F7FF2324E4FEF5FB8327B2
:101FB000C4FCDC43BD8B0547B317F70093960701BC
:101FC000C1828327C4FCDC4313D75700B707002026
:101FD0000A079387C700BA979C43368798CB7DA89A
:101FE0008327C4FC9C43BD8B0547B317F70093962A
:101FF0000701C1828327C4FC9C4313D75700B7074E
:1020000000200A079387C700BA979C433687D8CB2E
:102010008327C4FCDC472322F4FE0100832744FE0F
:102020001387F7FF2322E4FEF5FB8327C4FC9C43C0
:10203000BD8B0547B317F70093960701C18283272D
:10204000C4FC9C4313D75700B70700200A079387A7
:10205000C700BA979C43368798CB8327C4FCDC47DC
:102060002320F4FE0100832704FE1387F7FF2320BB
:10207000E4FEF5FB8347F4FE860793948701E18431
:102080008327C4FCDC433E85EFE07FE3AA87E207B9
:10209000E187C58FE207E187A307F4FE8347E4FEEB
:1020A0001387F7FF2307E4FE85FF8327C4FC9C43C7
:1020B000BD8B0547B317F70093960701C1828327AD
:1020C000C4FC9C4313D75700B70700200A07938727
:1020D000C700BA979C433687D8CB8327C4FCDC471C
:1020E000232EF4FC01008327C4FD1387F7FF232E62
:1020F000E4FCF5FB8347B4FCBE850325C4FCEFF08C
:102100007F9C8347F4FE3E85F2506254D254216195
:102110008280011106CE22CC00102326A4FE2324A7
:10212000B4FE2322C4FE8327C4FEB337F00093F726
:10213000F70F3E871306700FED67938507163A85F4
:10214000EF508029832784FEB337F00093F7F70F11
:102150003E871306800FED67938507163A85EF508B
:10216000A0270325C4FEEFF04FEF8327C4FE83C7EB
:102170008700860793F7F70FBE850325C4FE353920
:1021800029A8832784FE138717002324E4FE83C72E
:102190000700BE850325C4FE0D31832744FE138747
:1021A000F7FF2322E4FEF1FF0325C4FEEFF06FFDED
:1021B0000100F240624405618280011106CE22CC0A
:1021C00000102326A4FEAE873287A305F4FEBA874B
:1021D0002305F4FE8327C4FEB337F00093F7F70F0F
:1021E0003E8713066013ED67938507163A85EF5017
:1021F000A01E0325C4FEEFF04FE68327C4FE83C76D
:102200008700860793F7F70FBE850325C4FE753652
:102210008347B4FEBE850325C4FE45368347A4FE2E
:10222000BE850325C4FE513E0325C4FEEFF06FF5C5
:102230000100F240624405618280797106D622D4A1
:102240000018232EA4FCAE87A30DF4FC8327C4FD45
:10225000B337F00093F7F70F3E871306401EED6784
:10226000938507163A85EF502017A30704FE032530
:10227000C4FDEFF08FDE8327C4FD83C78700860788
:1022800093F7F70FBE850325C4FD053E8347B4FDD4
:10229000BE850325C4FD15360325C4FDEFF0EFDB35
:1022A0008327C4FD83C787008607E207E18793E79A
:1022B0001700E207E18793F7F70FBE850325C4FDFA
:1022C000ED3C85450325C4FD8531AA87A307F4FEAF
:1022D0000325C4FDEFF0EFEA8347F4FE3E85B250DC
:1022E000225445618280011106CE22CC26CA0010FC
:1022F0002326A4FEAE872322C4FE2320D4FEA305FA
:10230000F4FE8327C4FEB337F00093F7F70F3E8740
:102310001306C01FED67938507163A85EF50C00B73
:10232000832744FEB337F00093F7F70F3E87130679
:10233000D01FED67938507163A85EF50E009032516
:10234000C4FEEFF08FD18327C4FE83C787008607C2
:1023500093F7F70FBE850325C4FEEFF01FA6834752
:10236000B4FEBE850325C4FEEFF03FA50325C4FEE1
:10237000EFF0AFCE8327C4FE83C787008607E2074E
:10238000E18793E71700E207E18793F7F70FBE8530
:102390000325C4FEEFF07FA22DA0832704FE93B790
:1023A000170093F7F70F3E87832444FE93871400AA
:1023B0002322F4FEBA850325C4FEBD36AA872380F6
:1023C000F400832704FE1387F7FF2320E4FEF1F7D0
:1023D0000325C4FEEFF0EFDA0100F2406244D2447C
:1023E00005618280011106CE22CC00102326A4FEB6
:1023F000AE873287A305F4FEBA872305F4FE832750
:10240000C4FEB337F00093F7F70F3E871306B028EA
:10241000ED67938507163A85EF40107C0325C4FECF
:10242000EFF0AFC38327C4FE83C78700860793F707
:10243000F70FBE850325C4FEEFF03F988347B4FE37
:10244000BE850325C4FEEFF05F978347A4FEBE85DB
:102450000325C4FEEFF07F960325C4FEEFF06FD294
:102460000100F240624405618280797106D622D46F
:102470000018232EA4FCAE87A30DF4FC8327C4FD13
:10248000B337F00093F7F70F3E871306D029ED67B7
:10249000938507163A85EF403074A30704FE0325A1
:1024A000C4FDEFF08FBB8327C4FD83C78700860779
:1024B00093F7F70FBE850325C4FDEFF01F90834708
:1024C000B4FDBE850325C4FDEFF03F8F0325C4FD99
:1024D000EFF02FCB0325C4FDEFF02FB88327C4FD09
:1024E00083C787008607E207E18793E71700E207C3
:1024F000E18793F7F70FBE850325C4FDEFF0FF8B4F
:1025000085450325C4FDEFF03FA2AA87A307F4FE8B
:102510000325C4FDEFF0EFC68347F4FE3E85B250BD
:10252000225445618280797106D622D40018232670
:10253000A4FEAE872322C4FE2320D4FE232EE4FC77
:10254000A305F4FE8327C4FEB337F00093F7F70F1B
:102550003E871306802BED67938507163A85EF407B
:10256000B067032704FE8327C4FDB307F740B337E2
:10257000F00093F7F70F3E871306902BED679385D6
:1025800007163A85EF4050658327C4FE032704FEF3
:1025900098C38327C4FE0327C4FDD8C38327C4FE82
:1025A0000347B4FE2384E7008327C4FE032744FEC9
:1025B000D8C7C14605468545032504FEEFE0FF9ACE
:1025C000D146054685450325C4FDEFE01F9A01006D
:1025D000B250225445618280011122CE0010232680
:1025E000A4FEAE87A305F4FEF1670327C4FE0A0725
:1025F000938787A7BA979C433E878347B4FEC20759
:10260000C1832316F7000100F1670327C4FE0A0700
:10261000938787A7BA979C4383D78700C207C18354
:1026200093F70708F5F3F1670327C4FE0A079387BA
:1026300087A7BA979C4383D7C700010072440561FE
:102640008280011122CE00102326A4FEAE8723151E
:10265000F4FE8357A4FEA183C207C18393F6F70F4C
:10266000F1670327C4FE0A07938787A7BA979C439D
:102670003E8793970601C1832316F7000100F16797
:102680000327C4FE0A07938787A7BA979C4383D77B
:102690008700C207C18393F70708F5F38357A4FEA9
:1026A00093F6F70FF1670327C4FE0A07938787A7FE
:1026B000BA979C433E8793970601C1832316F70080
:1026C0000100F1670327C4FE0A07938787A7BA971B
:1026D0009C4383D78700C207C18393F70708F5F3AC
:1026E0000100724405618280011122CE0010232670
:1026F000A4FEAE873287A305F4FEBA872305F4FE55
:10270000F1670327C4FE0A07938787A7BA979C43FC
:102710003E878347B4FEC207C1832316F70001003A
:10272000F1670327C4FE0A07938787A7BA979C43DC
:1027300083D78700C207C18393F70708F5F3F167D2
:102740000327C4FE0A07938787A7BA979C4383D7BA
:10275000C700F1670327C4FE0A07938787A7BA97C4
:102760009C433E878347A4FEC207C1832316F7001C
:102770000100F1670327C4FE0A07938787A7BA976A
:102780009C4383D78700C207C18393F70708F5F3FB
:10279000F1670327C4FE0A07938787A7BA979C436C
:1027A00083D7C7000100724405618280011122CEE7
:1027B00000102326A4FEAE872322C4FE2320D4FECD
:1027C000A305F4FEF1670327C4FE0A07938787A7D2
:1027D000BA979C433E878347B4FEC207C183231642
:1027E000F7000100F1670327C4FE0A07938787A754
:1027F000BA979C4383D78700C207C18393F7070822
:10280000F5F3B9A0832744FE138717002322E4FEC3
:1028100083C60700F1670327C4FE0A07938787A7CB
:10282000BA979C433E8793970601C1832316F7000E
:102830000100F1670327C4FE0A07938787A7BA97A9
:102840009C4383D78700C207C18393F70708F5F33A
:10285000832704FE1387F7FF2320E4FEC5F701005A
:10286000724405618280011122CE00102326A4FE4D
:10287000AE872322C4FE2320D4FEA305F4FEF16715
:102880000327C4FE0A07938787A7BA979C433E870E
:102890008347B4FEC207C1832316F7000100F16726
:1028A0000327C4FE0A07938787A7BA979C4383D759
:1028B0008700C207C18393F70708F5F3F167032781
:1028C000C4FE0A07938787A7BA979C4383D7C7009C
:1028D00095A0F1670327C4FE0A07938787A7BA97D5
:1028E0009C43239607000100F1670327C4FE0A07F3
:1028F000938787A7BA979C4383D78700C207C18372
:1029000093F70708F5F3F1670327C4FE0A079387D7
:1029100087A7BA979C4383D7C70093960701C182C4
:10292000832744FE138717002322E4FE13F7F60FD4
:102930002380E700832704FE1387F7FF2320E4FEAC
:10294000C9FB01007244056182805D7186C6A2C424
:1029500080082326A4FC2324B4FC2322C4FC2320C7
:10296000D4FC232EE4FA232CF4FA232A04FBF16787
:102970000327C4FC0A07938787A7BA979C433E8521
:10298000EF70103B85450545EF701029032704FCC7
:10299000930730126313F702032784FB9307401257
:1029A000631DF7000327C4FB930750126317F7005A
:1029B00085450545EF70804A1DA8032704FC8967FB
:1029C0009387A7146315F702032784FB896793870E
:1029D000B714631EF7000327C4FB89679387C714E6
:1029E0006317F700854537152000EF7020478327D0
:1029F000C4FC91E785450565EF70102225A00327EB
:102A0000C4FC85476317F70085451165EF703025D5
:102A100011A80327C4FC89476316F7008545216583
:102A2000EF70F023832704FC93F7F70F93068031B0
:102A3000054685453E85EFE04FD38327C4FB93F7DA
:102A4000F70F93068031054685453E85EFE0EFD1CF
:102A5000032784FBC167F917630DF700832784FB05
:102A600093F7F70F93068034054681453E85EFE0E6
:102A7000CFCF032744FB9307F00F630DF7008327A5
:102A800044FB93F7F70F93060031014685453E85D9
:102A9000EFE0AFCD232E04FC232004FE232204FE0E
:102AA000232404FE231604FE231E04FC9307401077
:102AB000231FF4FC231004FE032784FC85476305D1
:102AC000F702832784FC81CF032784FC89476303B3
:102AD000F702032784FC8D476304F7020DA8231136
:102AE00004FE231204FE25A0231104FE85472312B1
:102AF000F4FE31A889472311F4FE231204FE01A835
:102B000089472311F4FE85472312F4FE01002317A1
:102B100004FE03A74182832744FCB357F70223171F
:102B2000F4FE03A74182832744FCB377F70291E7C1
:102B30008357E4FEFD172317F4FE0357E4FE9307C3
:102B4000F00763F7E700930780032317F4FE49A813
:102B50000357E4FE9307F00363F7E70093070003CE
:102B60002317F4FEB5A80357E4FEFD4763F7E7001B
:102B7000930780022317F4FEA5A00357E4FEBD4788
:102B800063F7E700930700022317F4FE91A80357A9
:102B9000E4FE9D4763F6E700E1472317F4FE89A0B2
:102BA0000357E4FE8D4763F6E700C1472317F4FEA1
:102BB00005A80357E4FE854763F6E700A1472317FE
:102BC000F4FE39A88357E4FE81C7231704FE09A841
:102BD00013067021ED679385071C0145EF40C07F08
:102BE0008357E4FE2314F4FE930700202313F4FE1E
:102BF000231504FE9D472316F4FEF1670327C4FC4A
:102C00000A07938787A7BA979C433E879307C4FD1B
:102C1000BE853A85EF703019F1670327C4FC0A07B7
:102C2000938787A7BA979C4385453E85EF703027E9
:102C30000100B640264461618280797122D6001875
:102C4000232EA4FC232CB4FC8547A307F4FE032702
:102C5000C4FD0A07938781ACBA979C4399EB03277D
:102C6000C4FD0A07938781ACBA97032784FD98C3F4
:102C700015A00327C4FD0A07938781ACBA979C432C
:102C8000032784FD6316F7008547A307F4FE19A008
:102C9000A30704FE8347F4FE3E85325445618280DB
:102CA000011106CE22CC00102326A4FE8327C4FEE9
:102CB00081EB8545856713850780EF70E0756DA80A
:102CC0000327C4FE85476317F70085450545EF7068
:102CD00000795DA00327C4FE89476317F700854587
:102CE0000945EF70C07749A80327C4FE8D476317D5
:102CF000F70085451145EF708076BDA80327C4FE17
:102D000091476317F70085452145EF704075ADA0E9
:102D10000327C4FE95476317F70085454145EF70CB
:102D2000007499A80327C4FE99476318F7008545E6
:102D300013050002EF70A07281A00327C4FE9D4717
:102D40006317F70085450965EF70006D35A003270F
:102D5000C4FEA1476318F700854537050800EF70EA
:102D6000A06B19A80327C4FEA5476317F700854584
:102D700037051000EF70406A0100F24062440561BF
:102D80008280797106D622D40018232EA4FCB7378E
:102D90000140938707C02326F4FE0327C4FDA547FF
:102DA00063ECE7088327C4FD13972700F167938737
:102DB00047A8BA979C438287B7370140938707C0DB
:102DC0002326F4FE95A8B70700402326F4FEADA005
:102DD000B7070040938707402326F4FEB1A8B71732
:102DE0000040938707802326F4FEB9A0B717004060
:102DF000938707C02326F4FE81A0B717004023263F
:102E0000F4FE1DA8B7170040938707402326F4FE61
:102E100025A0B7370140938707402326F4FE29A851
:102E2000B7570140938707C02326F4FE31A0B75758
:102E300001402326F4FE010085450325C4FEEF80F2
:102E400040140100B250225445618280797122D62B
:102E50000018232EA4FCB7370140938707C0232610
:102E6000F4FE231504FE0327C4FDA54763ECE70821
:102E70008327C4FD13972700F1679387C7AABA97E2
:102E80009C438287B7370140938707C02326F4FE0F
:102E900095A8B70700402326F4FEADA0B707004071
:102EA000938707402326F4FEB1A8B7170040938705
:102EB00007802326F4FEB9A0B7170040938707C008
:102EC0002326F4FE81A0B71700402326F4FE1DA898
:102ED000B7170040938707402326F4FE25A0B73795
:102EE0000140938707402326F4FE29A8B7570140E5
:102EF000938707C02326F4FE31A0B757014023264D
:102F0000F4FE01000327C4FD0A07938701AFBA97B7
:102F100098438947631FF7008327C4FE83D747027E
:102F20001397070141838D47B357F7022315F4FE2A
:102F300039A08327C4FE83D747022315F4FE8357A5
:102F4000A4FE3E85325445618280797122D60018F4
:102F5000232EA4FCB7370140938707C02326F4FE35
:102F60000327C4FDA54763ECE7088327C4FD139737
:102F70002700F167938747ADBA979C438287B7379D
:102F80000140938707C02326F4FE95A8B7070040A9
:102F90002326F4FEADA0B707004093870740232601
:102FA000F4FEB1A8B7170040938707802326F4FEEC
:102FB000B9A0B7170040938707C02326F4FE81A06D
:102FC000B71700402326F4FE1DA8B71700409387CB
:102FD00007402326F4FE25A0B7370140938707401A
:102FE0002326F4FE29A8B7570140938707C023265C
:102FF000F4FE31A0B75701402326F4FE01008327D9
:10300000C4FE239207020100325445618280797127
:1030100006D622D40018232EA4FC232CB4FC85450C
:103020000325C4FD1939AA873E871306200FED67D3
:103030009385C7213A85EF40203A0327C4FD0A074C
:10304000938781ACBA97054798C3B73701409387F8
:1030500007C02326F4FE0327C4FDA54763ECE70859
:103060008327C4FD13972700F1679387C7AFBA97EB
:103070009C438287B7370140938707C02326F4FE1D
:1030800095A8B70700402326F4FEADA0B70700407F
:10309000938707402326F4FEB1A8B7170040938713
:1030A00007802326F4FEB9A0B7170040938707C016
:1030B0002326F4FE81A0B71700402326F4FE1DA8A6
:1030C000B7170040938707402326F4FE25A0B737A3
:1030D0000140938707402326F4FE29A8B7570140F3
:1030E000938707C02326F4FE31A0B757014023265B
:1030F000F4FE01000325C4FD65360327C4FD0A075D
:10310000938701AFBA97032784FD98C3232004FE59
:10311000232204FE231404FE032784FD8547631540
:10312000F702FD572312F4FE03A74182B7470F00B1
:1031300093870724B357F702C207C183FD17C2075D
:10314000C1832310F4FE2DA8032784FD894763144F
:10315000F702FD572312F4FE03A741828567938788
:1031600087BBB357F702C207C183FD17C207C183EC
:103170002310F4FE31A0FD572312F4FE231004FEA9
:10318000231304FE231104FE230404FE930704FE0C
:10319000BE850325C4FEEF70205685450325C4FE79
:1031A000EF70305E0100B2502254456182800111FF
:1031B00022CE00102326A4FEAE87A305F4FE010054
:1031C000F1670327C4FE0A07938747B2BA979C4367
:1031D00083D70700C207C18393F70708F5D3F167C8
:1031E0000327C4FE0A07938747B2BA979C433E87DA
:1031F0008347B4FEC207C1832312F7000100724463
:1032000005618280011106CE22CC00102326A4FE87
:103210002324B4FE2322C4FE832784FEB337F000A8
:1032200093F7F70F3E8713061004ED679385C727C2
:103230003A85EF40601A29A8832784FE1387170078
:103240002324E4FE83C70700BE850325C4FE85371B
:10325000832744FE1387F7FF2322E4FEF1FF0100DA
:10326000F240624405618280011106CE22CC00103A
:103270002326A4FE2324B4FE832784FEB337F00064
:1032800093F7F70F3E8713060005ED679385C72771
:103290003A85EF40601439A8832784FE138717000E
:1032A0002324E4FE8387070093F7F70FBE850325E9
:1032B000C4FEF53D832784FE83870700F1FF0100EC
:1032C000F240624405618280011106CE22CC0010DA
:1032D0002326A4FEAE87A305F4FEF1670327C4FEF0
:1032E0000A07938747B2BA979C433E878347B4FE49
:1032F0003E86930550523A85EF8080401387418A7D
:103300008327C4FEBA9783C7070081453E85EF40F7
:10331000705A8347B4FE81CF1387418A8327C4FE46
:10332000BA9783C707003E85EF40105519A8138749
:10333000418A8327C4FEBA9783C707003E85EF40C2
:1033400090550100F240624405618280011122CE55
:1033500000102326A4FE2324B4FEF1670327C4FE35
:103360000A07938747B2BA979C4383D70700C207DF
:10337000C18393F707028DC7F1670327C4FE0A07CD
:10338000938747B2BA979C4383D74700C207C1834C
:1033900013F7F70F832784FE2380E700854711A0EA
:1033A00081473E85724405618280797106D622D4B8
:1033B0000018232EA4FC232CB4FC232AC4FC2328AD
:1033C000D4FC032744FD832704FD3D8F8327C4FDE0
:1033D000B207F98F93B7170093F7F70F3E871306DD
:1033E000A00AED679385C7273A85EF30F07E8327E3
:1033F00044FD13D78700832704FDA183B307F7405B
:1034000093B7170093F7F70F3E871306B00AED67DF
:103410009385C7273A85EF30307C832744FD93F7A7
:10342000F70FE146014685453E85EFD01FB483275F
:1034300004FD93F7F70F93068004014681453E850E
:10344000EFD0BFB285450545EF60107D032744FDF1
:10345000C167FD17F98F0D67130707386385E720EC
:103460000D67130707386369F704056713075716D5
:103470006381E716056713075716636FF700130795
:10348000F022638AE70C130760306381E7101307AB
:1034900060126388E70855A6096713078736638AB1
:1034A000E7160D67130707126385E7180967130707
:1034B000A7146380E71451A615671307A738638C18
:1034C000E72615671307A7386362F702116713072A
:1034D0008738638EE71E1567130787126383E72219
:1034E000116713074712638AE71A81AE196713073A
:1034F000C7386386E72A19671307C7386368F70078
:103500001967130767106382E72605AE1D67130767
:10351000E7106380E72C1D671307E7386385E72E04
:1035200029AEB7070140D44FB7070140370700FC69
:103530007D17758FD8CFB7070140D843B707014033
:103540006D9BD8C3B7070140D843B7070140136745
:103550004700D8C3DDA4B7070140D44FB7070140E7
:10356000370700FC7D17758FD8CFB7070140D44FC0
:10357000B707014037070004558FD8CFB707014080
:10358000D843B70701406D9BD8C345ACB70701408E
:10359000D44FB7070140370700FC7D17758FD8CF90
:1035A000B7070140D44FB707014037070004558FD4
:1035B000D8CFB7070140D843B70701406D9BD8C3A8
:1035C000B7070140D843B707014013674700D8C386
:1035D000ADA4B7070140D843B70701405D9BD8C3EE
:1035E000B7070140D843B707014013678700D8C326
:1035F000A9A4B7070140D843B70701401D9BD8C312
:10360000B7070140D843B707014013678700D8C305
:103610002DA4B7070140D843B70701401D9BD8C36D
:10362000B7070140D843B707014013678701D8C3E4
:1036300029A4B7070140D44FB70701403707FDFF62
:103640007D17758FD8CFB7070140D44F832744FD2E
:10365000A18313970701B70703007D8FB7070140C8
:10366000558FD8CFD9AAB7070140D44FB70701402B
:103670003707FDFF7D17758FD8CFB7070140D44FAF
:10368000832744FDA18313970701B70703007D8FAC
:10369000B7070140558FD8CF4DA2B7070140D44F8F
:1036A000B70701403707F4FF7D17758FD8CFB707ED
:1036B0000140D44F832744FDA18313972701B70707
:1036C0000C007D8FB7070140558FD8CFBDA2B7073B
:1036D0000140D44FB70701403707F4FF7D17758FBE
:1036E000D8CFB7070140D44F832744FDA183139758
:1036F0002701B7070C007D8FB7070140558FD8CF42
:103700002DAAB7070140D44FB70701403707D0FFB4
:103710007D17758FD8CFB7070140D44F832744FD5D
:10372000A18313974701B70730007D8FB70701408A
:10373000558FD8CF19A2B7070140D44FB707014022
:103740003707D0FF7D17758FD8CFB7070140D44F0B
:10375000832744FDA18313974701B70730007D8F6E
:10376000B7070140558FD8CFC9A8B7070140D44F3C
:10377000B7070140370740FF7D17758FD8CFB707D0
:103780000140D44F832744FDA18313976701B707F6
:10379000C0007D8FB7070140558FD8CF79A8B707F4
:1037A0000140D44FB7070140370740FF7D17758FA1
:1037B000D8CFB7070140D44F832744FDA183139787
:1037C0006701B707C0007D8FB7070140558FD8CF7D
:1037D000ADA0B7070140D44FB7070140370700FD40
:1037E0007D17758FD8CFB7070140D44F832744FD8D
:1037F000A18313978701B70700037D8FB7070140A7
:10380000558FD8CF1DA8B7070140D44FB707014047
:10381000370700FD7D17758FD8CFB7070140D44F0C
:10382000832744FDA18313978701B70700037D8F8A
:10383000B7070140558FD8CF01008327C4FD91E71A
:1038400085451165EF60503D69A80327C4FD854794
:103850006318F700854537050200EF60504051A01E
:103860000327C4FD89476318F70085453705040021
:10387000EF60F03EBDA00327C4FD8D476318F7003D
:10388000854537050800EF60903DA1A80327C4FDDA
:1038900091476318F700854537051000EF60303C0D
:1038A00089A00327C4FD95476318F70085451305D4
:1038B0000004EF60D03A35A00327C4FD9947631890
:1038C000F700854513050008EF60703919A8032734
:1038D000C4FD9D476317F700854513050010EF6091
:1038E0001038232004FE232204FE232404FE232672
:1038F00004FE832784FD2320F4FE231204FE2313F9
:1039000004FE231404FE231604FEB1472315F4FE1F
:10391000F1670327C4FD0A07938747B2BA979C4310
:103920003E87930704FEBE853A85EF703034F16719
:103930000327C4FD0A07938747B2BA979C4385457E
:103940003E85EF70F0550100B250225445618280EF
:10395000411106C622C40008A1461386C18B8145C9
:10396000138581B1EF40E0240100B24022444101BF
:103970008280797106D622D40018232EA4FC232C31
:10398000B4FC230704FEA30704FE231604FE054629
:1039900093050008138541B3EFE03F820546930588
:1039A000F00F138541B3EFE05F8101468145138538
:1039B00041B3EFE09F8019469305F00F138541B3A3
:1039C000EFE0AFFF9307E4FE85463E86930530089F
:1039D000138541B3EFE03F918347E4FE93E747004F
:1039E00093F7F70F3E8693053008138541B3EFE058
:1039F000CFFC1D469305F00F138541B3EFE0EFFBBD
:103A0000054693051008138541B3EFE00FFB05460B
:103A100093050008138541B3EFE02FFA1306B006B3
:103A200093054009138541B3EFE02FF90146930553
:103A30003008138541B3EFE04FF8230704FE81A857
:103A400003A741828967938707F4B357F702854537
:103A50003E85EFC03FB29307E4FE85463E86930560
:103A60003008138541B3EFE01F888357C4FEC207B7
:103A7000C18313871700420741832316E4FE13070F
:103A8000F00F6376F7008547A307F4FE11A883477C
:103A9000E4FEDDD70347E4FE9307F00FE302F7FAF5
:103AA0008347F4FE6393070C05469305300813859E
:103AB00041B3EFE08FF09307E4FE85463E86930521
:103AC0002009138541B3EFE01F828347E4FE93F79B
:103AD000F70713F7F70F8327C4FD2380E700834719
:103AE000E4FE9D8313F7F70F832784FD2380E7000F
:103AF000014693051008138541B3EFE00FEC19461A
:103B00009305F00F138541B3EFE02FEB9307E4FE2D
:103B100085463E8693053008138541B3EFE0AFFC40
:103B20008347E4FE3E8693053008138541B3EFE0FA
:103B3000CFE805469305F00F138541B3EFE0EFE7BB
:103B400005468145138541B3EFE02FE70146930514
:103B5000F00F138541B3EFE04FE6014693050008EF
:103B6000138541B3EFE06FE511A001008347F4FE38
:103B70003E85B250225445618280797122D6001868
:103B8000AA872E87231FF4FCBA87A30EF4FC0347F1
:103B9000D4FDB7373A00938707F0B307F7021387CE
:103BA000471F9307803EB357F7022326F4FE0357BF
:103BB000E4FD8327C4FE3307F7028327C4FE858311
:103BC0003E979307803EB357F7023E8532544561D6
:103BD0008280797122D60018232EA4FCAE87A30D13
:103BE000F4FC0347B4FDB7373A00938707F0B307F7
:103BF000F7021387471F9307803EB357F702232628
:103C0000F4FE0327C4FD9307803E3307F7028327A2
:103C1000C4FE85833E978327C4FEB357F7023E85D3
:103C2000325445618280011122CE0010AA872317E9
:103C3000F4FE8357E4FE93F7F70F0357E4FE218366
:103C400042074183B397E700C207C1838507C207D4
:103C5000C1833E85724405618280797122D6001845
:103C6000AA87231FF4FC232604FE231504FE231435
:103C700004FE8357E4FDA9CB8357E4FDFD172326FB
:103C8000F4FE19A88327C4FE85832326F4FE8357F8
:103C9000A4FE85072315F4FE8327C4FE93F707F0DF
:103CA000F5F38357A4FEA2071397070141878327E3
:103CB000C4FEC207C18793F7F70FC207C187D98F28
:103CC000C207C1872314F4FE835784FE3E85325415
:103CD00045618280797106D622D40018232EA4FC77
:103CE000A30704FE9307F4FE85463E8685451385AB
:103CF00041B3EFE04FDF8347F4FE918393F7F70F73
:103D0000858B13F7F70F8327C4FD2380E7008347D4
:103D1000F4FE8D8393F7F70F858B13F7F70F832747
:103D2000C4FD2381E7008347F4FE898393F7F70FEF
:103D3000858B13F7F70F8327C4FDA380E700834724
:103D4000F4FE998393F7F70F858B13F7F70F83270B
:103D5000C4FDA381E7008347F4FE9D8313F7F70FAB
:103D60008327C4FD2382E7000100B250225445613D
:103D70008280797106D622D40018232EA4FCA307D2
:103D800004FE8327C4FD95E79307F4FE85463E862F
:103D900093050005138541B3EFE0EFD48347F4FEAC
:103DA000850793F7F70F860793F7F70FA307F4FE3E
:103DB00035A80327C4FD85476317F7029307F4FE70
:103DC00085463E8693050007138541B3EFE0AFD1EA
:103DD0008347F4FE850793F7F70F860793F7F70FEE
:103DE000A307F4FE21A0FD57A307F4FE8347F4FECA
:103DF0003E85B250225445618280797106D622D424
:103E00000018232EA4FC232CB4FC231704FE014528
:103E10008D37AA87139707014183832784FD239059
:103E2000E7009307C4FE85463E869305600413852C
:103E300041B3EFE04FCB8347C4FEC207C183850780
:103E4000139707014183832784FD2392E70083278B
:103E500084FD03D74700832784FD83D7070093F7AA
:103E6000F70FBE853A85113B2A87832784FDD8C783
:103E70009307C4FE89463E8693051005138541B31A
:103E8000EFE06FC68347C4FEA2071397070141877F
:103E90008347D4FEC207C187D98FC207C1872317C2
:103EA000F4FE8357E4FE3E85BD3BAA873E87832709
:103EB00084FD2393E700832784FD03D767008327CE
:103EC00084FD83D7070093F7F70FBE853A85EFF09F
:103ED000DFCA2A87832784FD98CB0545593DAA87E9
:103EE000139707014183832784FD2391E7009307FC
:103EF000C4FE89463E8693051007138541B3EFE063
:103F00008FBE8347C4FEA2071397070141878347EB
:103F1000D4FEC207C187D98FC207C1872317F4FE19
:103F20008357E4FE3E85EFF01FD0AA873E878327A4
:103F300084FD2394E7008327C4FD83C7370095C31E
:103F4000832784FD03D78700832784FD83D76700F9
:103F5000B307F740139707014183832784FD239418
:103F6000E700832784FD03D78700832784FD83D759
:103F7000270093F7F70FBE853A85EFF01FC02A8719
:103F8000832784FDD8CB0100B25022544561828042
:103F9000797106D622D40018AA87A30FF4FCA307D0
:103FA00004FE230704FE231604FE8347F4FD93E773
:103FB000170093F7F70F3E868145138541B3EFE075
:103FC000CF9F9307E4FE85463E86930560041385E4
:103FD00041B3EFE04FB181A803A74182896793877E
:103FE00007F4B357F70285453E85EFC0AFD8930776
:103FF000E4FE85463E8693056004138541B3EFE0F9
:104000008FAE8357C4FEC207C183138717004207D0
:1040100041832316E4FE1307F00F6376F70085470C
:10402000A307F4FE29A08347E4FE9D8BD5D78347E1
:10403000F4FE91EF0546AD45138541B3EFE0EF97F0
:1040400001468145138541B3EFE02F9711A0010090
:104050008347F4FE3E85B2502254456182801D7133
:1040600086CEA2CC80102326A4FAA30704FE231236
:1040700004FE0327C4FA95679387F7E163E6E70038
:104080008547A307F4FE0DAA85679387878E2324AF
:10409000F4FE930744FD3E85EFF0DFC31307C4FB36
:1040A000930744FDBA853E85EFF03FD5834744FD35
:1040B00091CB032784FC832784FEBA979387E72458
:1040C0002324F4FE834764FD81CF832784FC9387F8
:1040D000272B8607032784FEBA972324F4FE29A8FA
:1040E000834754FD91CB032784FC832784FEBA9732
:1040F000938747292324F4FE834774FD91CB03273C
:10410000C4FC832784FEBA97938747292324F4FEAF
:10411000834784FDD5C3832784FE938767222324A6
:10412000F4FE032784FE8327C4FA63F6E70085477D
:10413000A307F4FE51A00327C4FA832784FEB30724
:10414000F7402320F4FE8357E4FB93F7F70FBE8577
:10415000032504FEEFF0FFA7AA872313F4FE83478D
:1041600074FD81CB035724FC835764FEBA97231355
:10417000F4FE835764FE3E85EFF03FAEAA8723121C
:10418000F4FE93071007230EF4FC835744FEA1832B
:10419000C207C18393F7F70FA30EF4FC835744FEC5
:1041A00093F7F70F230FF4FC9307C4FD0D46BE856C
:1041B000138541B3EFD0FFF58347F4FE3E85F6400B
:1041C000664425618280397106DE22DC80008567C5
:1041D000938767B32326F4FE930744FE3E85EFF0F2
:1041E0007FAF1307C4FC930744FEBA853E85EFF00A
:1041F000DFC0834744FE91CB032784FD8327C4FEA1
:10420000BA979387E7242326F4FE834764FE81CF81
:10421000832784FD9387272B86070327C4FEBA973D
:104220002326F4FE29A8834754FE91CB032784FD5F
:104230008327C4FEBA97938747292326F4FE834732
:1042400074FE91CB0327C4FD8327C4FEBA979387DE
:1042500047292326F4FE834784FE91CB032704FEDF
:104260008327C4FEBA97938767222326F4FE832709
:10427000C4FE3E85F250625421618280797106D677
:1042800022D40018272EA4FC8727C4FD530700F072
:10429000D307F7A099EF0725C4FDEF30412DED6757
:1042A00003A6073883A64738EF107166AA876344D0
:1042B000F000854711A0814713F7F70F1306801E02
:1042C000ED679385872D3A85EF3000110727C4FDF0
:1042D000ED6787A78738D377F710D39717C02317D1
:1042E000F4FE930740042304F4FE8357E4FEA18305
:1042F000C207C18393F7F70FA304F4FE8357E4FECC
:1043000093F7F70F2305F4FE930784FE0D46BE8551
:10431000138541B3EFD0FFDF0100B2502254456155
:104320008280011106CE22CC00109307C4FE854680
:104330003E86CD45138541B3EFD0FFFA8347C4FED7
:104340009D8BB1CB9307C4FE89463E86F945138504
:1043500041B3EFD05FF98347C4FEC207C183A20710
:104360001397070141832394E1808347D4FE139779
:104370000701418383D78180D98F13970701418338
:104380002394E1800546AD45138541B3EFD0FFE2AC
:1043900005472382E18C8347C4FEC18B85C3930705
:1043A000C4FE89463E86F945138541B3EFD0BFF37D
:1043B0000546AD45138541B3EFD03FE00100F24023
:1043C000624405618280797106D622D40018A30365
:1043D00004FEA30704FEA30604FE230704FE9307BE
:1043E00004FE194681453E85EFB09FE1930784FDA9
:1043F0001D4681453E85EFB0BFE01307500693068A
:104400006006294693059002138541B3EFE0AF9112
:10441000C146054685451305A008EFC01FB503A793
:1044200041828967938707F4B357F70293054006E3
:104430003E85EFC02F94B70700209387C7009C4BA1
:1044400013070040D8CB03A741828967938707F4FD
:10445000B357F702930520033E85EFC0AF91B7072E
:1044600000209387C7009C4B1307004098CB03A7FD
:1044700041828967938707F4B357F7029305400693
:104480003E85EFC02F8F93059008138541B3EFD081
:10449000DFDAAA87A306F4FE8347D4FE93E717006A
:1044A00093F7F70F3E8693059008138541B3EFD03D
:1044B000DFD0014693058008138541B3EFD0FFCFCD
:1044C000054693050008138541B3EFD01FCF05467D
:1044D0009305F00F138541B3EFD03FCE01468145E0
:1044E000138541B3EFD07FCD930774FE85463E869A
:1044F00093051009138541B3EFD0FFDE05468145D2
:10450000138541B3EFD07FCB01469305F00F1385A0
:1045100041B3EFD09FCA014693050008138541B30C
:10452000EFD0BFC993050006138541B3EFD0FFD08C
:10453000AA87A306F4FE8347D4FE93E7270193F7E7
:10454000F70F3E8693050006138541B3EFD0FFC6F3
:10455000ED6787A7C7385385F720EFF03FD21306E2
:10456000F00F8545138541B3EFD03FC5930784FD18
:1045700013871700930784FDBA853E85EFF06FBF60
:10458000AA878DC38547A307F4FE9306F024ED6741
:104590001386872DED67938547330145EF20506AD9
:1045A0006F006074930704FE99463E869305000BE6
:1045B000138541B3EFD03FD305469305F00F138524
:1045C00041B3EFD09FBF01469305F004138541B37B
:1045D000EFD0BFBE1306C0029305E004138541B3BC
:1045E000EFD0BFBD01469305F00F138541B3EFD067
:1045F000DFBC1306400B9305600B138541B3EFD06E
:10460000DFBB834794FD99C3B14711A08147230DB8
:10461000F4FC230704FE55A08347A4FD0347E4FEF2
:104620006368F7000347B4FD834784FD6319F7040B
:104630008347E4FE8D8313F6F70FB287130704FF59
:10464000BA9783C707FF1397870161878347E4FE03
:104650009D8B8546B397F600E207E18793C7F7FF86
:10466000E207E187F98F139787016187B287137794
:10467000F70F930604FFB6972388E7FE15A8834734
:10468000E4FE8D8393F7F70F130704FFBA9783C7F0
:1046900007FF3E878347E4FE9D8BB357F740858B2A
:1046A00081CB8347B4FD850793F7F70FA30DF4FC87
:1046B0008347E4FE85072307F4FE0347E4FE9307E0
:1046C000F002E3FBE7F4930700FB230CF4FC8547BF
:1046D0002307F4FE05A08347E4FEFD17130704FF3C
:1046E000BA9783C707FFA30CF4FC8347E4FE850752
:1046F0002307F4FE0347E4FE9947E3FEE7FC930734
:1047000084FD1D46BE85138541B3EFD09FA00546AD
:104710009305F00F138541B3EFD03FAA01468145C1
:10472000138541B3EFD07FA901469305F00F1385A0
:1047300041B3EFD09FA80146A545138541B3EFD003
:10474000DFA70146C145138541B3EFD01FA701463E
:10475000C545138541B3EFD05FA6054693054002DA
:10476000138541B3EFD07FA51306F00F93055002D8
:10477000138541B3EFD07FA40146930550071385FD
:1047800041B3EFD09FA305469305F00F138541B3C6
:10479000EFD0BFA21306C0029305E004138541B316
:1047A000EFD0BFA1014693058004138541B3EFD03C
:1047B000DFA01306000293050003138541B3EFD079
:1047C000DF9F01469305F00F138541B3EFD0FF9EA5
:1047D000254693050003138541B3EFD01F9E014684
:1047E00093054005138541B3EFD03F9D11469305D6
:1047F0001003138541B3EFD05F9C0D469305200352
:10480000138541B3EFD07F9B130630089305000456
:10481000138541B3EFD07F9A1306500293056004CD
:10482000138541B3EFD07F990146930500061385A8
:1048300041B3EFD09F98014693057002138541B3B1
:10484000EFD0BF97194693050005138541B3EFD00C
:10485000DF96014693051005138541B3EFD0FF9510
:104860001306600993052005138541B3EFD0FF942B
:10487000214693056005138541B3EFD01F941306BD
:10488000000393057005138541B3EFD01F930146D4
:1048900093051006138541B3EFD03F92014693056F
:1048A0002006138541B3EFD05F9101469305400682
:1048B000138541B3EFD07F900146930550061385D1
:1048C00041B3EFD09F8F1306000A9305600613854E
:1048D00041B3EFD09F8E05469305F00F138541B38A
:1048E000EFD0BF8D1306200393052002138541B33B
:1048F000EFD0BF8C514693057004138541B3EFD0C0
:10490000DF8B1306F00F93059004138541B3EFD0AE
:10491000DF8A01469305A004138541B3EFD0FF89D8
:1049200001469305F00F138541B3EFD01F89294647
:104930009305A007138541B3EFD03F880146930547
:10494000B007138541B3EFD05F87130610029305BC
:104950008007138541B3EFD05F8605469305F00FBE
:10496000138541B3EFD07F851306400393053002D2
:10497000138541B3EFD07F8401469305200413854E
:1049800041B3EFD09F831306F00F930540041385C6
:1049900041B3EFD09F821306600293055004138544
:1049A00041B3EFD09F81154693056004138541B351
:1049B000EFD0BF801306000493050004138541B3B4
:1049C000EFD0AFFF1946B945138541B3EFD0EFFEE5
:1049D000694693050002138541B3EFD00FFE13061D
:1049E000000493053004138541B3EFD00FFD014659
:1049F0009305F00F138541B3EFD02FFC0D469305BF
:104A00004003138541B3EFD04FFB130640049305D9
:104A10005003138541B3EFD04FFA05469305F00FCD
:104A2000138541B3EFD06FF9114693051003138539
:104A300041B3EFD08FF825469305B004138541B3F9
:104A4000EFD0AFF715469305C004138541B3EFD0FF
:104A5000CFF611469305D004138541B3EFD0EFF59F
:104A600001469305F00F138541B3EFD00FF50146D2
:104A700093054004138541B3EFD02FF413060002D1
:104A800093055004138541B3EFD02FF321469305CE
:104A90007004138541B3EFD04FF2130680029305E3
:104AA0008004138541B3EFD04FF1014693057006A2
:104AB000138541B3EFD06FF01146930500071385BE
:104AC00041B3EFD08FEF054693051007138541B32F
:104AD000EFD0AFEE1306E00F93052007138541B327
:104AE000EFD0AFED014693056007138541B3EFD0DA
:104AF000CFEC014693057007138541B3EFD0EFEB80
:104B000005469305F00F138541B3EFD00FEB054633
:104B1000B545138541B3EFD04FEA01469305F00F39
:104B2000138541B3EFD06FE905469305000813855F
:104B300041B3EFD08FE81306800F8545138541B34D
:104B4000EFD0AFE705469305F00F138541B3EFD0E3
:104B5000CFE605469305E008138541B3EFD0EFE5B6
:104B600005468145138541B3EFD02FE501469305F6
:104B7000F00F138541B3EFD04FE4014693050008D1
:104B8000138541B3EFD06FE31146A945138541B3B7
:104B9000EFD0AFE293054008138541B3EFD0EFE9C2
:104BA000AA87A306F4FE8347D4FEBD9B93F7F70FB5
:104BB0003E8693054008138541B3EFD00FE00546CC
:104BC000AD45138541B3EFD04FDFEFF0CFDF2324A6
:104BD000A4FE1306800E8545138541B3EFD0EFDDAB
:104BE000032584FEEFF0AFC705468545138541B325
:104BF000EFD0AFDC13050004EFF08FB9AA8785C3AF
:104C00008547A307F4FE9306802DED671386872D55
:104C1000ED679385C7340145EF209002E9A009466E
:104C20008545138541B3EFD04FD90145EFF04FB61D
:104C3000AA8785C38547A307F4FE9306F02DED6789
:104C40001386872DED679385C7340145EF20407F9C
:104C500059A81306800E8545138541B3EFD0EFD5D3
:104C600003A741828967938707F4B357F702930537
:104C700040063E85EFB01F9005469305000813855A
:104C800041B3EFD08FD305469305F00F138541B3A1
:104C9000EFD0AFD201468145138541B3EFD0EFD1BC
:104CA000834774FE3E8693051009138541B3EFD008
:104CB000CFD005468145138541B3EFD00FD00146D3
:104CC0009305F00F138541B3EFD02FCF0146930525
:104CD0000008138541B3EFD04FCE094681451385B7
:104CE00041B3EFD08FCD8347F4FE3E85B2502254BE
:104CF00045618280411106C622C4000883A7C18C89
:104D00000547638BE7006386070C0947638DE7005F
:104D10000D47638FE702D9A083A7818C1387170003
:104D200023A4E18C65A883A7818C1387170023A493
:104D3000E18C03A7818CA54763FFE708B707002034
:104D40009387C7009C4B1167D8CB23A4018C61A02B
:104D500003A7018D85476312F7081305F008EFC01C
:104D60000F96AA87B9CF1945EFE04F8EAA873E87E5
:104D700083A7818C1D8F9307600963F0E7061945AF
:104D8000EFE0AF9C83A7818CD3F717D05385F72032
:104D9000EF20E17DED6703A6073983A64739EF10C1
:104DA0006142AA872E883E85C285EF200165AA87C9
:104DB0001397070141832395E180094723A8E18CDC
:104DC00029A81945EFE08F88AA873E8723A4E18CA4
:104DD00029A0010021A0010011A001000100B240A2
:104DE000224441018280411106C622C4000883A7E3
:104DF000C18C0947637CF7000D47639AE7001945AA
:104E0000EFE0AF94054723A8E18C11A00100010059
:104E1000B240224441018280411122C60008B707F6
:104E200000209387C7009C4B116798CB0100324448
:104E300041018280011106CE22CC0010232604FEFF
:104E400023950180054723A6E18C93068002014645
:104E500081451305F008EFC04F919306800201468B
:104E600081451305E008EFC04F90930740062315D6
:104E7000F4FEA5A01305F008EFC06F84AA87A9C3AC
:104E80001305E008EFC0AF83AA879DCB0D4723A68B
:104E9000E18C23A8018CC1451305F008EFB03FEA6F
:104EA000B1451305E008EFB09FE985451945EFE0EE
:104EB0000F961945EFE06F891945EFD09FEC0DA8CB
:104EC00003A74182B7177A0093870720B357F702E9
:104ED000930540063E85EFB0EFE98317A4FE1397D4
:104EE000070141837D17420741832315E4FED9F36F
:104EF0008317A4FE63D10708B1451305F008EFB08E
:104F00001FE4C146014685451305E008EFC0EF8563
:104F100023A4018CB70700209387C7009C4B11671F
:104F200098CB03A74182B7177A0093870720B3571E
:104F3000F7029305200D3E85EFB0CFE3B7070020C1
:104F40009387C7009C4B1167D8CB03A7818C9947E7
:104F500063FDE70003A7818CA54763E8E7000947E5
:104F600023A6E18C23A4018C39A023A6018C8547BC
:104F70002326F4FE01008327C4FE3E85F2406244EE
:104F800005618280011106CE22CC0010AA872E87EF
:104F9000A307F4FEBA872307F4FEB7070020938720
:104FA000C7009C4713070040D8CB0347E4FE834764
:104FB000F4FE3A86BE850945EFD00FF3B70700200F
:104FC0009387C7009C471307004098CB0100F2402D
:104FD000624405618280011106CE22CC0010AA87AE
:104FE0002324B4FE2322C4FEA307F4FEB707002047
:104FF0009387C7009C4713070040D8CB8347F4FE34
:10500000832644FE032684FEBE850945EFD00FFAB1
:10501000B70700209387C7009C471307004098CB31
:105020000100F240624405618280797106D622D483
:105030000018AA87A30FF4FCB70700209387C700C6
:105040009C4713070040D8CB8347F4FD93E707F84C
:1050500093F7F70F1307C4FE89463A86BE850945C4
:10506000EFD07F80B70700209387C7009C471307C6
:10507000004098CB8347D4FE3E85B2502254456110
:105080008280797106D622D40018AA87232CB4FC1A
:10509000232AC4FCA30FF4FCB70700209387C700A2
:1050A0009C4713070040D8CB8347F4FD93E707F8EC
:1050B00013F7F70F832744FD93861700930744FEE9
:1050C0003E86BA850945EFD00FFAB70700209387CF
:1050D000C7009C471307004098CB232604FE3DA041
:1050E0008327C4FE13871700832784FD9386170048
:1050F000232CD4FC930604FF3697034747FF2380F5
:10510000E7008327C4FE85072326F4FE8327C4FE19
:10511000032744FDE3E6E7FC0100B2502254456159
:105120008280011106CE22CC0010A30504FEA30745
:1051300004FE231604FE8357C4FE138717002316AC
:10514000E4FE1307F00F6376F7008547A307F4FE2C
:1051500005A80145EFF07FEDAA87A305F4FE03A79C
:1051600041828967938707F4B357F70285453E85E7
:10517000EFB04FC00347B4FE93074002E31DF7FAB8
:105180008347F4FE3E85F24062440561828001114E
:1051900006CE22CC0010930784FE1946BE85314509
:1051A000EFF03FEE834794FEA20713970701418774
:1051B000834784FEC207C187D98F139707014187B0
:1051C000239DE18C8347B4FEA20713970701418713
:1051D0008347A4FEC207C187D98F13970701418770
:1051E000239EE18C8347D4FEA207139707014187D2
:1051F0008347C4FEC207C187D98F13970701418730
:10520000239FE18C0100F24062440561828001111C
:1052100006CE22CC0010930784FE1946BE85494570
:10522000EFF03FE6834794FEA207139707014187FB
:10523000834784FEC207C187D98F1397070141872F
:10524000239AE18C8347B4FEA20713970701418795
:105250008347A4FEC207C187D98F139707014187EF
:10526000239BE18C8347D4FEA20713970701418754
:105270008347C4FEC207C187D98F139707014187AF
:10528000239CE18C0100F24062440561828001119F
:1052900006CE22CC0010A30704FE03A74182896733
:1052A000938707F4B357F702D1453E85EFB08FAC33
:1052B0001308F00F8967938747020967130757029E
:1052C00089669386360237969800130606688145EC
:1052D0000945EFD08FE7C146054685451305A00473
:1052E000EFB0BFC80145EFF05FD4EFF09FE3AA87AE
:1052F00085C393060011ED6713868739ED679385A3
:10530000873F0145EF20C0138547A307F4FE75A82A
:1053100081451305C007EFF0FFC603A741828967E7
:10532000938707F4B357F70285453E85EFB08FA406
:10533000814513059005EFF0FFC40966F167938579
:10534000876A1305E005EFF01FC985451305900531
:10535000EFF05FC303A741828967938707F4B357D0
:10536000F702D1453E85EFB0EFA013051002EFF034
:10537000DFCBAA8785E39306F011ED6713868739A3
:10538000ED67938547410145EF20800B8547A307D3
:10539000F4FE25A8B9451305D007EFF0BFBE93056D
:1053A000700A13050004EFF0FFBD9305900A130582
:1053B0002004EFF03FBD894513051004EFF09FBCBA
:1053C000814513053004EFF0FFBB8347F4FE3E85B3
:1053D000F240624405618280397106DE22DC800081
:1053E0002326A4FC8547A307F4FE231604FE2324EA
:1053F00004FE232E04FC83D7818E3E87930700236F
:105400006316F700A5472324F4FE29A0A14723240F
:10541000F4FE010049A0930750FA2300F4FE83270D
:1054200084FE8A070327C4FCBA978397070093F783
:10543000F70FA300F4FE832784FE8A070327C4FC2A
:10544000BA97839727002313F4FE835764FEA18342
:10545000C207C18393F7F70F2301F4FE835764FE5D
:1054600093F7F70FA301F4FE930704FE1146BE85E0
:105470001145EFD03FD903A741828967938707F48D
:10548000B357F70289453E85EFB0CF8E832784FE60
:10549000FD172324F4FE032784FE9307E00FE3FCAB
:1054A000E7F6138581B1EF20002D2A87894763FF36
:1054B000E7028D47232EF4FC1307C4FD930704FE77
:1054C00081463A86BE85138581B1EF20804003472F
:1054D00014FE9307F00F6308F700034724FE9307B9
:1054E000F00F6315F700A30704FE35A003A7418260
:1054F0008967938707F4B357F70285453E85EFB078
:105500006F878357C4FE138717002316E4FE130723
:10551000F007E378F7F88347F4FE3E85F2506254D3
:1055200021618280397106DE22DC80002326A4FC02
:10553000A30704FE231604FE232404FE232E04FCEA
:1055400083D7818E3E87930700236316F700A54714
:105550002324F4FE29A0A1472324F4FE010083277D
:1055600084FEFD172324F4FE29AA03D7818E930716
:10557000F02263EDE700832784FE8A070327C4FC3B
:10558000BA9703970700A5476307F70E930750FAEA
:105590002300F4FEC557A300F4FE832784FE8A0788
:1055A0000327C4FCBA97839707002313F4FE83579D
:1055B00064FEA183C207C18393F7F70F2301F4FEB2
:1055C000835764FE93F7F70FA301F4FE930704FEDD
:1055D0001146BE851145EFD0FFC2231604FE138588
:1055E00081B1EF2040192A87894763F7E7048D4787
:1055F000232EF4FC1307C4FD930704FE81463A866C
:10560000BE85138581B1EF20C02C834714FEA2070D
:1056100093960701C186834724FE139707014187AC
:10562000832784FE8A070326C4FCB297558F42075E
:1056300041872391E70035A003A7418289679387BB
:1056400007F4B357F70285453E85EFA0BFF28357B5
:10565000C4FE138717002316E4FE1307F007E37058
:10566000F7F80357C4FE9307000863F7E700854780
:10567000A307F4FE19A80100832784FEFD17232445
:10568000F4FE832784FEE39207EE8347F4FE3E8513
:10569000F250625421618280011106CE22CC0010AA
:1056A000A30704FE9307F4FEBE851145EFD01FCA81
:1056B0000347F4FE9307500A6316F700138581B180
:1056C000EF10707B8347F4FEBE85138581B1EF2018
:1056D000C00E0100F240624405618280411122C681
:1056E000000805472380E18E010032444101828099
:1056F000011106CE22CC0010231704FE231604FE4F
:10570000232004FE930750FA2302F4FEC557A30298
:10571000F4FE9307200F2315F4FE8357A4FEA18304
:10572000C207C18393F7F70F2303F4FE8357A4FE48
:1057300093F7F70FA303F4FE930744FE1146BE85CB
:105740001145EFD03FAC138581B1EF20C0022A870D
:10575000894763F0E7048D472320F4FE130704FE16
:10576000930744FE81463A86BE85138581B1EF20BA
:105770004016834754FEA2071397070141878347CA
:1057800064FEC207C187D98FC207C1872316F4FE02
:1057900035A003A741828967938707F4B357F702BF
:1057A00085453E85EFA01FDD8357E4FE1387170074
:1057B0002317E4FE1307F007E377F7F88357C4FED7
:1057C0003E85F240624405618280397106DE22DC4A
:1057D0008000A30704FE054723A2E18E9307C4FDC2
:1057E0001307C004930620061306401F81453E851B
:1057F000EFC07FD303A741828967938707F4B3572C
:10580000F7029305800C3E85EFA0DFD61307C4FD99
:10581000B7070020938507023A85EFE0B079AA87A1
:10582000638B070C23A2018E9167938627069167ED
:105830001386C7048967938507581145EFD0FFB6D3
:1058400085451145EFD05FA803A7418289679387FB
:1058500007F4B357F7029305800C3E85EFA09FD164
:10586000B75700001386C76DB75700009385876947
:105870000D45EF106022EFE0AF8DEFF07FE7AA87D4
:105880003E872394E18EB707002013850702EFF0CF
:10589000BFB4AA878DC79306701BED671386474375
:1058A000ED67938587490145EF10903901468145A1
:1058B0000145EF10601E8547A307F4FE2DA8B7072A
:1058C000002013858704EFF0FFC5AA878DC79306D4
:1058D000301CED6713864743ED679385474B0145C1
:1058E000EF101036014681450145EF10E01A85475B
:1058F000A307F4FE0100B75700001386C76DB75722
:105900000000938587690D45EF10001991473EC44B
:1059100095473EC299473EC0930890021308800203
:10592000930760021307B0049306900413068004E3
:10593000A9452545EFA0BFCD854689671386075841
:105940008145B70700201385C76CEFA0DFDD8347D3
:10595000F4FE3E85F250625421618280011106CE30
:1059600022CC0010AA87A307F4FEB7070020938774
:10597000C700DC47414798CBB70700209387C70093
:10598000DC474147D8CBB70700209387C700DC47E7
:1059900013070008D8CB8347F4FEBE850545EFC04A
:1059A000BFC3B70700209387C700DC47414798CBA8
:1059B000B70700209387C700DC471307000898CB80
:1059C000B70700209387C700DC474147D8CB0100C9
:1059D000F240624405618280011106CE22CC0010A3
:1059E000AA8736872317F4FEAE872316F4FEB28704
:1059F0002315F4FEBA872314F4FE83C74181C2073E
:105A0000C1830357E4FEB337F70093F7F70F3E87E0
:105A10001306E008ED679385074D3A85EF10D01B1C
:105A200083C75181C207C1830357C4FEB337F70050
:105A300093F7F70F3E871306F008ED679385074D40
:105A40003A85EF10701983C74181C207C18303579C
:105A5000A4FEB337F70093F7F70F3E87130600094C
:105A6000ED679385074D3A85EF10101783C7518175
:105A7000C207C183035784FEB337F70093F7F70FCC
:105A80003E8713061009ED679385074D3A85EF10A1
:105A9000B01483A7C18E91C703A7C18E8547631732
:105AA000F7081305A002EFF07FEB81450545EFC035
:105AB000BFB28357E4FE93F7F70F890793F7F70F09
:105AC000BE850545EFC05FB181450545EFC0DFB03C
:105AD0008357A4FE93F7F70F890793F7F70FBE8557
