:100000006F70D029130000001300000013000000DF
:100010001300000013000000130000001300000094
:100020001300000013000000130000001300000084
:08003000130000007300100032
:10003800000000000000000038770000487700004A
:1000480000000000E279000000000000000000004D
:10005800E4790000E67900000000000000000000DC
:10006800E879000000000000EA79000000000000C4
:10007800EC790000EE790000F0790000F2790000D8
:10008800F4790000F6790000DC6B0000506C000089
:10009800C46C0000386D0000AC6D0000027A0000EE
:1000A800047A0000067A0000087A00000A7A000044
:1000B8000C7A00000E7A0000107A0000127A000014
:1000C800147A0000167A0000187A0000206E0000EA
:1000D8001C7A0000E46F0000207A0000227A0000F9
:1000E80064700000DC7000007E7200002A7A000054
:1000F8002C7A00002E7A0000307A0000327A000054
:10010800347A000030670000B467000038680000E7
:10011800F86E00003E7A0000407A0000427A000043
:10012800C0750000467A0000487A00004A7A00004C
:100138004C7A00004E7A0000FE720000527A0000ED
:10014800BC680000406900007E7300004075000034
:100158005C7A00005E7A0000607A0000627A000033
:10016800647A0000667A0000687A00006A7A000003
:100178006C7A00006E7A0000707A000030A10000EE
:10018800747A0000767A00004C6B0000C2690000A7
:10019800466A0000D06A0000807A000040760000BD
:1001A800847A0000867A0000887A0000C076000011
:1001B8008C7A00008E7A0000907A0000927A000013
:1001C800947A0000967A0000987A00009A7A0000E3
:1001D8000000000000000000000000000000000017
:1001E8000000000000000000000000000000000007
:0801F8000000000000000000FF
:100200003D432A876373C3029377F700BDEFADE5E3
:10021000937606FF3D8ABA960CC34CC30CC74CC7F5
:100220004107E36BD7FE11E28280B306C3408A0622
:100230009702000096966780A6002307B700A306E2
:10024000B7002306B700A305B7002305B700A30432
:10025000B7002304B700A303B7002303B700A3022A
:10026000B7002302B700A301B7002301B700A30022
:10027000B7002300B700828093F5F50F93968500B1
:10028000D58D93960501D58D61B79396270097027A
:10029000000096968682E78086FA9680C1171D8FA9
:1002A0003E96E374C3F8A5B7797106D622D4001838
:1002B000232EA4FC8327C4FDB18393F7F70FBD8BD6
:1002C000A307F4FE8327C4FDA18393F7F70FBD8B2B
:1002D0002307F4FE0347F4FEB70700200A079387BD
:1002E0000729BA979C430347E4FE91460546BA8521
:1002F0003E85EF70D02B0347F4FEB70700200A07B6
:1003000093870729BA979C4385453E85EF70F02572
:1003100001000347F4FEB70700200A079387072967
:10032000BA979C4389453E85EF70F04CAA87F5D378
:100330000347F4FEB70700200A0793870729BA97F7
:100340009C43FC478346F4FE1387018A3697034794
:100350000700B3D7E700C207C1833E85B2502254DD
:1003600045618280797106D622D40018232EA4FC20
:10037000AE87A30DF4FC0347B4FD13060005D56753
:10038000938507B03A85EF50E062232404FEA3076B
:1003900004FE05A00325C4FD013FAA873E878327ED
:1003A00084FEBA972324F4FE8347F4FE8507A3074F
:1003B000F4FE0347F4FE8347B4FDE36DF7FC834787
:1003C000B4FD032784FEB357F7022324F4FE8327EA
:1003D00084FEC207C1833E85B250225445618280AB
:1003E0005D7186C6A2C48008232EA4FA232CB4FA19
:1003F000232604FC232804FC232A04FC232C04FCCD
:10040000232E04FC232004FE232204FE232404FEC6
:100410008327C4FBB18393F7F70FBD8BA307F4FECB
:100420008327C4FB93F7F70F8146014681453E853C
:10043000EF00102D8347F4FE99E785451305002052
:10044000EF80806319A80347F4FE85476317F70020
:10045000854513050040EF8020620145EF80A02C08
:100460000347F4FEB70700200A0793870729BA97C6
:100470009C433E85EF70206B232604FC232804FC5C
:10048000232A04FCB7070E00232CF4FC232E04FCC3
:1004900085472300F4FE0347F4FEB70700200A0750
:1004A00093870729BA979C431307C4FCBA853E85F6
:1004B000EF70606D0347F4FEB70700200A079387CB
:1004C0000729BA979C4385453E85EF70E07B03473B
:1004D000F4FEB70700200A0793870729BA979C43C1
:1004E00081453E85EF70D0340347F4FEB707002006
:1004F0000A0793870729BA979C433E85EF70A07C33
:1005000001000347F4FEB70700200A079387072975
:10051000BA979C433E85EF70207DAA87FDF3034781
:10052000F4FEB70700200A0793870729BA979C4370
:100530003E85EF70607E01000347F4FEB7070020A0
:100540000A0793870729BA979C433E85EF70E07EA0
:10055000AA87FDF38346F4FE832784FB13F7F70F86
:100560009387018AB6972380E7000100B6402644AE
:1005700061618280011122CE00102326A4FE232473
:10058000B4FE37F600E04C4237F600E0F9994CC271
:100590000326C4FEB2860147032684FEB2870148C3
:1005A00037F600E03305F702B305D802AA95338584
:1005B000F602B3B3F6022A83B3877500BE832328FD
:1005C0006600232A7600B7F700E09843B7F700E00B
:1005D0001367070198C3B7F700E09843B7F700E047
:1005E0001367170298C30100B7F700E0DC4313F765
:1005F00017008547E31AF7FEB7F700E09843B7F70F
:1006000000E0799B98C3010072440561828001116A
:1006100006CE22CC0010AA8E2E8E32833685BA8565
:100620003E86C2864687F687A307F4FEF287230735
:10063000F4FE9A87A306F4FEAA872306F4FEAE878B
:10064000A305F4FEB2872305F4FEB687A304F4FEE7
:10065000BA872304F4FE8347F4FE93068004014620
:1006600081453E85EF00D0098347E4FE9306800470
:10067000014681453E85EF00B0088347D4FE9306CE
:100680008004014681453E85EF0090078347C4FE04
:1006900093068004014681453E85EF00700683473E
:1006A000B4FE93068004014681453E85EF00500567
:1006B0008347A4FE93068004014681453E85EF00F2
:1006C0003004834794FE93068004014681453E85AD
:1006D000EF001003834784FE9306800401468145A2
:1006E0003E85EF00F00183474400930680040146F5
:1006F00081453E85EF00D0008347040093068004C7
:10070000014681453E85EF00A07F83478400930624
:100710008004014681453E85EF00807E0100F24065
:10072000624405618280011106CE22CC001023268E
:10073000A4FE2324B4FEB28736872313F4FEBA87BF
:100740002312F4FE85450965EF80A02EB7070550FA
:1007500083C7070013F7F70FB70705501377F7FCA8
:100760001377F70F2380E700B707055083C707000B
:1007700013F7F70FB7070550136727041377F70F21
:100780002380E700B707055083C7170013F7F70F5B
:10079000B7070550659B1377F70FA380E700B707EE
:1007A0000550035744FE2392E700B707055003574F
:1007B00064FE2393E700B70705500327C4FE98C7DC
:1007C000B7070550032784FED8C7B707055083C76E
:1007D000170013F7F70FB70705501377F7031377D1
:1007E000F70FA380E70037070550B7070550034709
:1007F00017001377F70FA380E700B707055083C7EB
:10080000270013F7F70FB707055013674700137753
:10081000F70F2381E700B707055083C7170013F7C9
:10082000F70FB7070550136717001377F70FA3806B
:10083000E700B707055083C7070013F7F70FB7079F
:100840000550136717001377F70F2380E7008D45D6
:1008500013056005EF50D06313056005EF50905FFE
:100860000100F240624405618280797106D622D48B
:100870000018232EA4FC231704FE231604FE0327CE
:10088000C4FDA54763E0E70C8327C4FD1397270049
:10089000D5679387072FBA979C438287B737014064
:1008A000938707C083D74702C207C1832317F4FE8B
:1008B00069A8B707004083D74702C207C18323173F
:1008C000F4FE61A0B70700409387074083D7470233
:1008D000C207C1832317F4FE8DA8B7170040938782
:1008E000078083D74702C207C1832317F4FEB1A84C
:1008F000B7170040938707C083D74702C207C18359
:100900002317F4FE99A0B73701409387074083D798
:100910004702C207C1832317F4FE05A8B757014059
:10092000938707C083D74702C207C1832317F4FE0A
:1009300029A8B757014083D74702C207C1832317AD
:10094000F4FE21A0231704FE0100B707002013873F
:1009500007008327C4FDBA9783C7070013F7F70F73
:100960009307F00F6317F7008357E4FE2316F4FE96
:100970002DA8B7070020138707008327C4FDBA9767
:1009800083C7070093F7F70F3E85152BAA8791EBD6
:100990008357E4FEB307F040C207C1832316F4FE79
:1009A00029A08357E4FE2316F4FE8317C4FE3E8578
:1009B000B250225445618280011122CE00102326BC
:1009C000A4FE0327C4FEA54763E0E7088327C4FE0F
:1009D00013972700D56793878731BA979C438287FF
:1009E000B7370140938707C023920702B9A8B7071A
:1009F00000402392070291A8B70700409387074061
:100A00002392070299A0B71700409387078023928B
:100A1000070225A8B7170040938707C02392070253
:100A20002DA0B7370140938707402392070231A8D2
:100A3000B7570140938707C02392070239A0B757E1
:100A400001402392070211A00100010072440561D8
:100A50008280397106DE22DC80002326A4FC232458
:100A6000B4FC2322C4FC232604FE91450325C4FCC8
:100A7000EF103050AA873E871306100DD567938577
:100A8000C7B43A85EF4010738327C4FC1397C7009F
:100A9000832784FC7D8F8327C4FCB207B307F7400C
:100AA00093B7170093F7F70F3E871306200DD5670E
:100AB0009385C7B43A85EF40F06F8327C4FC139742
:100AC000C700832744FC7D8F8327C4FCB207B3078C
:100AD000F74093B7170093F7F70F3E871306300DD3
:100AE000D5679385C7B43A85EF40D06C0325C4FC25
:100AF000EF10904E832784FC93F7F70F9306800442
:100B0000014681453E85ED2E832744FC93F7F70F80
:100B100093068004014681453E85DD26832784FCBB
:100B200013F7F70FB7070020938607008327C4FC4D
:100B3000B6972380E7000327C4FCA54763E0E708D6
:100B40008327C4FC13972700D56793870734BA9788
:100B50009C438287B7370140938707C02324F4FE64
:100B60008DA0B70700402324F4FEA1A8B7070040DA
:100B7000938707402324F4FEA9A0B717004093876A
:100B800007802324F4FE35A8B7170040938707C0D9
:100B90002324F4FE3DA0B737014093870740232468
:100BA000F4FE05A0B7570140938707C02324F4FE45
:100BB00009A8B75701402324F4FE21A08547232626
:100BC000F4FE85450545EF70306B832784FC13D711
:100BD00087008D47631AF7008545B7071600138510
:100BE000070CEF70B00DE5A8832784FC13D78700AE
:100BF000C547631AF7008545B70718001385071026
:100C0000EF70D00BE9A8832784FC13D787009307E4
:100C10002002631AF7008545B7171A00138507806D
:100C2000EF70D0096DA8832784FC13D78700930742
:100C30003002631AF7008545B7171A00138507C0FD
:100C4000EF70D00769A8832784FC13D78700930728
:100C500010036317F70085450565EF70300641A066
:100C6000832784FC13D7870093071007631AF700C4
:100C70008545B707008013854700EF70300485A0D5
:100C8000832784FC13D7870093073008631AF70083
:100C90008545B707138013850701EF70300281A0E7
:100CA000832784FC13D7870093071009631AF70082
:100CB0008545B707158013850702EF70300005A042
:100CC000832784FC13D78700930730096319F70043
:100CD0008545B707158013850704EF70207E8327AD
:100CE000C4FEA9EB232E04FC232004FE231204FEE1
:100CF0009307C4FD3E85EF80100B231E04FCFD57B7
:100D00002310F4FE231104FE231F04FC230204FE1F
:100D10009307C4FDBE85032584FEEF80E0039305A1
:100D20000006032584FEEF80501E8545032584FEC2
:100D3000EF80300B0100F2506254216182807971A2
:100D400006D622D40018232EA4FC232CB4FC8545FF
:100D50000545EF70705293068004054681450325D2
:100D6000C4FD792A8327C4FD958313F7F70F8327E2
:100D7000C4FD93F7F70FFD8B93F7F70FBE853A8508
:100D8000EF705010232004FE232204FE232404FECF
:100D9000232604FE8327C4FDFD8B0547B317F70008
:100DA0002320F4FE232204FE832784FD2324F4FE63
:100DB00085472326F4FE930704FE3E85EF70802BC3
:100DC0008327C4FDFD8B89E75945EF50B008BDA0CE
:100DD0008327C4FDF98B89E75D45EF50B007B9A8BB
:100DE0008327C4FD13F7F701894763E6E7006145F0
:100DF000EF505006A1A08327C4FDF18B89E765451C
:100E0000EF50500525A88327C4FD13F7F70191473C
:100E100063E6E7006945EF50F0030DA08327C4FDAA
:100E200013F7F701A54763E7E70013057002EF50DA
:100E3000700229A013058003EF50D0010100B250C9
:100E4000225445618280011122CE00102326A4FE87
:100E5000AE87A305F4FE8347B4FE85CB8327C4FE8B
:100E6000BD8B0547B317F70093960701C18283270F
:100E7000C4FE13D75700B70700200A079387C7009F
:100E8000BA979C43368798CB3DA08327C4FEBD8B81
:100E90000547B317F70093960701C1828327C4FE65
:100EA00013D75700B70700200A079387C700BA97E0
:100EB0009C433687D8CB01007244056182800111C2
:100EC00022CE00102326A4FE8327C4FE958313F7A9
:100ED0007700B70700200A079387C700BA979C439B
:100EE0009C470327C4FE7D8B85463397E600F98F28
:100EF000B337F00093F7F70F3E85724405618280A7
:100F0000797106D622D40018232EA4FC232CB4FC1D
:100F1000B2872328D4FCA30BF4FC232004FE232255
:100F200004FE232404FE8327C4FD958393F7F70F63
:100F30009D8BA307F4FE8327C4FD93F7F70FFD8B6A
:100F40002307F4FE8347F4FE91E785451145EF70D2
:100F5000B03291A80347F4FE85476317F700854533
:100F60002145EF70703181A00347F4FE8947631774
:100F7000F70085454145EF70303035A00347F4FE5A
:100F80008D476318F700854513050002EF70D02EDA
:100F900019A80347F4FE91476317F7008545130529
:100FA0000004EF70702D8347E4FE0547B317F70088
:100FB000C207C1832310F4FE032784FD854763170E
:100FC000F702832704FDC207C183A183C207C1833F
:100FD00089E78D472322F4FE11A8832704FDC20769
:100FE000C183A183C207C1832322F4FE832704FDAA
:100FF000C207C18393F7F70F2324F4FE0347F4FEDF
:10100000B70700200A079387C700BA979C431307C6
:1010100004FEBA853E85EF704024032784FD854792
:101020006319F7020347F4FEB70700200A07938706
:10103000C700BA9794438347E4FE0547B317F70008
:10104000C207C183034774FD3A86BE853685EF70BB
:1010500060430100B2502254456182801D7186CEEA
:10106000A2CC80102326A4FA2324B4FA85450325B4
:10107000C4FAEF100070AA873E871306D006D56722
:10108000938547BC3A85EF40F012832784FAB33743
:10109000F00093F7F70F3E871306F006D5679385A8
:1010A00047BC3A85EF401011832784FABD8323158E
:1010B000F4FE8357A4FE85073E87832784FAB3D7BF
:1010C000E7022314F4FE0325C4FAEF10E070B737EB
:1010D0000140938707C02326F4FE0327C4FAA547DF
:1010E00063ECE7088327C4FA13972700D567938733
:1010F0008736BA979C438287B7370140938707C0EA
:101100002326F4FE95A8B70700402326F4FEADA0E1
:10111000B7070040938707402326F4FEB1A8B7170E
:101120000040938707802326F4FEB9A0B71700403C
:10113000938707C02326F4FE81A0B717004023261B
:10114000F4FE1DA8B7170040938707402326F4FE3E
:1011500025A0B7370140938707402326F4FE29A82E
:10116000B7570140938707C02326F4FE31A0B75735
:1011700001402326F4FE0100232E04FC232004FE5C
:10118000231204FE835784FE2310F4FE8357A4FE2B
:10119000231EF4FC231104FE231F04FC230204FE7F
:1011A0009307C4FDBE850325C4FEEF70F03A0546E3
:1011B00085450325C4FEEF80404E85450325C4FECA
:1011C000EF80F00DD56703AEC7B91387C7B9032306
:1011D00047001387C7B9832887001387C7B9032837
:1011E000C7001387C7B9084B1387C7B94C4B138780
:1011F000C7B9104F1387C7B9544F1387C7B91853CE
:101200009387C7B9DC53232AC4FB232C64FA232E0B
:1012100014FB232004FD2322A4FC2324B4FC232656
:10122000C4FC2328D4FC232AE4FC232CF4FC8327CD
:10123000C4FA93F7F70F8A07130704FFBA9783A737
:1012400047FC8D453E85EF50A0448327C4FA8A07AA
:10125000130704FFBA9783A747FC3E85EF50803FF2
:1012600085450325C4FEEF80C0370100F640664483
:1012700025618280797106D622D40018232EA4FC21
:10128000232CB4FC032784FD896793871771B33738
:10129000F70093F7F70F3E8713065003D567938542
:1012A00007C13A85EF400071B7370140938707C007
:1012B0002326F4FE8327C4FDC183BD8B2547636EBF
:1012C000F70613972700D56793870739BA979C438A
:1012D0008287B7370140938707C02326F4FEB1A861
:1012E000B70700402326F4FE89A8B707004093877C
:1012F00007402326F4FE91A0B7170040938707808C
:101300002326F4FE1DA8B7170040938707C02326A5
:10131000F4FE25A0B7370140938707402326F4FE4B
:1013200029A8B7570140938707C02326F4FE31A0B0
:10133000B75701402326F4FE01008327C4FE83D75C
:10134000C7022315F4FE0357A4FE832784FD330749
:10135000F702896793870771B357F7022314F4FEE6
:101360008327C4FDA1838D8B81EB8327C4FE0357A4
:1013700084FE239AE702A9A88327C4FDA18313F75B
:10138000370085476319F7008327C4FE035784FE9F
:10139000239CE70235A88327C4FDA18313F73700F8
:1013A00089476319F7008327C4FE035784FE239EF1
:1013B000E70239A88327C4FDA18313F737008D47BF
:1013C0006318F7008327C4FE035784FE2390E704C5
:1013D0000100B2502254456182805D7186C6A2C46C
:1013E0008008232EA4FA232CB4FA232AC4FA8327D4
:1013F000C4FBC1838D453E85EF10A037AA873E8789
:101400001306D00AD567938507C13A85EF40805A05
:10141000032744FB896793871771B337F70093F766
:10142000F70F3E871306F00AD567938507C13A8503
:10143000EF404058232E04FC232004FE231204FE18
:10144000232604FC232804FC232A04FC232C04FC6C
:10145000231504FE8327C4FBC183BD8B3E85EF109B
:10146000A0378327C4FB93F7F70F9306803101461B
:1014700085453E85713485450545EF70E05FB7379A
:101480000140938707C02326F4FE8327C4FBC18352
:10149000BD8B2547636EF70613972700D5679387A3
:1014A000873BBA979C438287B7370140938707C031
:1014B0002326F4FEB1A8B70700402326F4FE89A82E
:1014C000B7070040938707402326F4FE91A0B71783
:1014D0000040938707802326F4FE1DA8B71700401D
:1014E000938707C02326F4FE25A0B73701409387D2
:1014F00007402326F4FE29A8B7570140938707C069
:101500002326F4FE31A0B75701402326F4FE010044
:101510008327C4FB13D7C7008D47631AF70085459F
:10152000B70716001385070CEF60507915AA8327BB
:10153000C4FB13D7C700C547631AF7008545B70733
:10154000180013850710EF60707719AA8327C4FB72
:1015500013D7C700C947631AF7008545B7071800B6
:1015600013850720EF609075E5A88327C4FB13D788
:10157000C700CD47631AF7008545B70718001385E4
:101580000730EF60B073E9A88327C4FB13D7C70007
:1015900093072002631AF7008545B7171A001385D1
:1015A0000780EF60B0716DA88327C4FB13D7C70015
:1015B00093073002631AF7008545B7171A001385A1
:1015C00007C0EF60B06F69A88327C4FB13D7C700BB
:1015D000930710036317F70085450565EF60106EEC
:1015E00041A08327C4FB13D7C70093071007631AD2
:1015F000F7008545B707008013854700EF60106C42
:1016000085A08327C4FB13D7C70093073008631A4C
:10161000F7008545B707138013850701EF60106A4F
:1016200081A08327C4FB13D7C70093071009631A4F
:10163000F7008545B707158013850702EF6010682E
:1016400005A08327C4FB13D7C7009307300963198C
:10165000F7008545B707158013850704EF6010660E
:1016600003A74182832784FBB357F702C183231565
:10167000F4FE03A741828357A4FE8507BE86832715
:1016800084FBB387F602B357F7022314F4FE035723
:1016900084FE832744FB3307F7028967938707712A
:1016A000B357F7022313F4FE835784FEFD17C207D6
:1016B000C1832310F4FE8357A4FE231EF4FC2311E0
:1016C00004FE231F04FC230204FE9307C4FDBE8511
:1016D0000325C4FEEF704068930700072316F4FC4F
:1016E00085472317F4FC231804FC835764FE231951
:1016F000F4FC8947231AF4FC8947231BF4FC231CC0
:1017000004FC231D04FC8327C4FBA1838D8B9DE374
:101710009307C4FCBE850325C4FEEF70C07BA145C2
:101720000325C4FEEF80A00791450325C4FEEF808A
:10173000C01B45A08327C4FBA18313F7370085474F
:101740006315F7029307C4FCBE850325C4FEEF7042
:101750005012A1450325C4FEEF80200993050040E7
:101760000325C4FEEF80201DADA08327C4FBA18309
:1017700013F7370089476314F7029307C4FCBE854B
:101780000325C4FEEF70102DA1450325C4FEEF8094
:10179000600B91450325C4FEEF80401F1DA88327E1
:1017A000C4FBA18313F737008D476314F702930737
:1017B000C4FCBE850325C4FEEF709047A1450325F8
:1017C000C4FEEF80E00C930500400325C4FEEF80CB
:1017D000A02085450325C4FEEF70306685450325AE
:1017E000C4FEEF7010600100B64026446161828043
:1017F000797106D622D40018232EA4FC8327C4FDB9
:10180000B337F00093F7F70F3E8713061004D56740
:101810009385C7C53A85EF40E0198327C4FD9C43F3
:10182000BD8B0547B317F70093960701C182832745
:10183000C4FD9C4313D75700B70700200A079387BE
:10184000C700BA979C43368798CB8327C4FDDC43F7
:10185000BD8B0547B317F70093960701C182832715
:10186000C4FDDC4313D75700B70700200A0793874E
:10187000C700BA979C43368798CB8327C4FDDC47C3
:101880002326F4FE01008327C4FE1387F7FF2326D7
:10189000E4FEF5FB8327C4FDDC43BD8B0547B3178E
:1018A000F70093960701C1828327C4FDDC4313D759
:1018B0005700B70700200A079387C700BA979C43D1
:1018C0003687D8CB8327C4FDDC472324F4FE0100F0
:1018D000832784FE1387F7FF2324E4FEF5FB832789
:1018E000C4FD9C43BD8B0547B317F70093960701D2
:1018F000C1828327C4FD9C4313D75700B70700203C
:101900000A079387C700BA979C433687D8CB010054
:10191000B250225445618280797106D622D40018D3
:10192000232EA4FC8327C4FDB337F00093F7F70FF1
:101930003E8713064005D5679385C7C53A85EF40B6
:1019400060078327C4FDDC43BD8B0547B317F70051
:1019500093960701C1828327C4FDDC4313D7570048
:10196000B70700200A079387C700BA979C433687BA
:10197000D8CB8327C4FD9C43BD8B0547B317F70025
:1019800093960701C1828327C4FD9C4313D7570058
:10199000B70700200A079387C700BA979C4336878A
:1019A000D8CB8327C4FDDC472326F4FE0100832720
:1019B000C4FE1387F7FF2326E4FEF5FB8327C4FD4F
:1019C0009C43BD8B0547B317F70093960701C1826F
:1019D0008327C4FD9C4313D75700B70700200A078D
:1019E0009387C700BA979C43368798CB8327C4FD5B
:1019F000DC472324F4FE0100832784FE1387F7FFCE
:101A00002324E4FEF5FB8327C4FDDC43BD8B05479F
:101A1000B317F70093960701C1828327C4FDDC4307
:101A200013D75700B70700200A079387C700BA9754
:101A30009C43368798CB8327C4FDDC472322F4FEE2
:101A40000100832744FE1387F7FF2322E4FEF5FB02
:101A50000100B250225445618280797106D622D4A9
:101A60000018232EA4FCAE87A30DF4FC8327C4FD2D
:101A7000B337F00093F7F70F3E8713069006D5674C
:101A80009385C7C53A85EF30F0728327C4FD9C4328
:101A9000BD8B0547B317F70093960701C1828327D3
:101AA000C4FD9C4313D75700B70700200A0793874C
:101AB000C700BA979C433687D8CB8347B4FD95CBF4
:101AC0008327C4FDDC43BD8B0547B317F70093960E
:101AD0000701C1828327C4FDDC4313D75700B70732
:101AE00000200A079387C700BA979C43368798CB94
:101AF0000DA88327C4FDDC43BD8B0547B317F70052
:101B000093960701C1828327C4FDDC4313D7570096
:101B1000B70700200A079387C700BA979C43368708
:101B2000D8CB8327C4FDDC472326F4FE010083279E
:101B3000C4FE1387F7FF2326E4FEF5FB8327C4FDCD
:101B40009C43BD8B0547B317F70093960701C182ED
:101B50008327C4FD9C4313D75700B70700200A070B
:101B60009387C700BA979C43368798CB8327C4FDD9
:101B7000DC472324F4FE0100832784FE1387F7FF4C
:101B80002324E4FEF5FB8327C4FD9C43BD8B05475E
:101B9000B317F70093960701C1828327C4FD9C43C6
:101BA00013D75700B70700200A079387C700BA97D3
:101BB0009C433687D8CB8327C4FDDC43BD8B0547C8
:101BC000B317F70093960701C1828327C4FDDC4356
:101BD00013D75700B70700200A079387C700BA97A3
:101BE0009C43368798CB0100B250225445618280D5
:101BF000797106D622D40018232EA4FC8327C4FDB5
:101C0000B337F00093F7F70F3E8713065008D567F8
:101C10009385C7C53A85EF30F059A30704FE8327A3
:101C2000C4FD9C43BD8B0547B317F700939607018E
:101C3000C1828327C4FD9C4313D75700B7070020F8
:101C40000A079387C700BA979C433687D8CB832768
:101C5000C4FDDC43BD8B0547B317F700939607011E
:101C6000C1828327C4FDDC4313D75700B707002088
:101C70000A079387C700BA979C43368798CB832778
:101C8000C4FDDC472324F4FE0100832784FE138770
:101C9000F7FF2324E4FEF5FB8327C4FD9C43BD8BA3
:101CA0000547B317F70093960701C1828327C4FD48
:101CB0009C4313D75700B70700200A079387C70034
:101CC000BA979C43368798CB8327C4FDDC472322F1
:101CD000F4FE0100832744FE1387F7FF2322E4FE6E
:101CE000F5FB8327C4FDDC433E85EFF04F9DAA87BB
:101CF00081C78547A307F4FE8327C4FD9C43BD8BA2
:101D00000547B317F70093960701C1828327C4FDE7
:101D10009C4313D75700B70700200A079387C700D3
:101D2000BA979C433687D8CB8327C4FDDC47232052
:101D3000F4FE0100832704FE1387F7FF2320E4FE4F
:101D4000F5FB8347F4FE3E85B25022544561828004
:101D5000797106D622D40018232EA4FCAE87A30DD9
:101D6000F4FC8327C4FDB337F00093F7F70F3E87E9
:101D70001306700AD5679385C7C53A85EF3090433F
:101D8000930700F8A307F4FE09AA0347B4FD8347AD
:101D9000F4FEF98F93F7F70F95CB8327C4FDDC434F
:101DA000BD8B0547B317F70093960701C1828327C0
:101DB000C4FDDC4313D75700B70700200A079387F9
:101DC000C700BA979C43368798CB0DA88327C4FDDC
:101DD000DC43BD8B0547B317F70093960701C1821B
:101DE0008327C4FDDC4313D75700B70700200A0739
:101DF0009387C700BA979C433687D8CB8347F4FEB6
:101E00008583A307F4FE8327C4FDDC472324F4FE67
:101E10000100832784FE1387F7FF2324E4FEF5FBEC
:101E20008327C4FD9C43BD8B0547B317F7009396EA
:101E30000701C1828327C4FD9C4313D75700B7070E
:101E400000200A079387C700BA979C43368798CB30
:101E50008327C4FDDC472322F4FE0100832744FED0
:101E60001387F7FF2322E4FEF5FB8327C4FD9C4381
:101E7000BD8B0547B317F70093960701C1828327EF
:101E8000C4FD9C4313D75700B70700200A07938768
:101E9000C700BA979C433687D8CB8347F4FEE396B6
:101EA00007EE0325C4FDA933AA87FD17B337F00059
:101EB00093F7F70F3E85B250225445618280397105
:101EC00006DE22DC26DA80002326A4FCAE87A305EA
:101ED000F4FC8327C4FCB337F00093F7F70F3E8779
:101EE0001306000CD5679385C7C53A85EF30902C53
:101EF000A30704FEA1472307F4FE8327C4FC9C43E9
:101F0000BD8B0547B317F70093960701C18283275E
:101F1000C4FC9C4313D75700B70700200A079387D8
:101F2000C700BA979C433687D8CB8327C4FCDC47CD
:101F30002324F4FE0100832784FE1387F7FF232464
:101F4000E4FEF5FB8327C4FCDC43BD8B0547B317D8
:101F5000F70093960701C1828327C4FCDC4313D7A3
:101F60005700B70700200A079387C700BA979C431A
:101F7000368798CB7DA88327C4FC9C43BD8B05473F
:101F8000B317F70093960701C1828327C4FC9C43D3
:101F900013D75700B70700200A079387C700BA97DF
:101FA0009C433687D8CB8327C4FCDC472322F4FE2E
:101FB0000100832744FE1387F7FF2322E4FEF5FB8D
:101FC0008327C4FC9C43BD8B0547B317F70093964A
:101FD0000701C1828327C4FC9C4313D75700B7076E
:101FE00000200A079387C700BA979C43368798CB8F
:101FF0008327C4FCDC472320F4FE0100832704FE72
:102000001387F7FF2320E4FEF5FB8347F4FE8607E2
:1020100093948701E1848327C4FCDC433E85EFE091
:102020001FEAAA87E207E187C58FE207E187A307D6
:10203000F4FE8347E4FE1387F7FF2307E4FE85FFE2
:102040008327C4FC9C43BD8B0547B317F7009396C9
:102050000701C1828327C4FC9C4313D75700B707ED
:1020600000200A079387C700BA979C433687D8CBCE
:102070008327C4FCDC47232EF4FC01008327C4FD26
:102080001387F7FF232EE4FCF5FB8347B4FCBE85E2
:102090000325C4FCEFF07F9C8347F4FE3E85F2509D
:1020A0006254D25421618280011106CE22CC0010EC
:1020B0002326A4FEAE873287A305F4FEBA87230544
:1020C000F4FE8327C4FEB337F00093F7F70F3E8783
:1020D0001306B028D5679385C7C53A85EF30900DB4
:1020E0000325C4FEEFF0CFF08327C4FE83C787002B
:1020F000860793F7F70FBE850325C4FE9139834702
:10210000B4FEBE850325C4FEA1318347A4FEBE856F
:102110000325C4FE35390325C4FEEFF0EFFF0100AF
:10212000F240624405618280797106D622D400189B
:10213000232EA4FCAE87A30DF4FC8327C4FDB33784
:10214000F00093F7F70F3E871306D029D5679385E4
:10215000C7C53A85EF301006A30704FE0325C4FD6A
:10216000EFF00FE98327C4FD83C78700860793F745
:10217000F70FBE850325C4FDE13E8347B4FDBE8550
:102180000325C4FDF1360325C4FDEFF0EFF8032568
:10219000C4FDEFF0EFE58327C4FD83C78700860702
:1021A000E207E18793E71700E207E18793F7F70F6C
:1021B000BE850325C4FD693E85450325C4FD013365
:1021C000AA87A307F4FE0325C4FDEFF0EFF48347CD
:1021D000F4FE3E85B250225445618280797106D664
:1021E00022D400182326A4FEAE872322C4FE232077
:1021F000D4FE232EE4FCA305F4FE8327C4FEB337EC
:10220000F00093F7F70F3E871306802BD567938571
:10221000C7C53A85EF30007A032704FE8327C4FD43
:10222000B307F740B337F00093F7F70F3E87130675
:10223000902BD5679385C7C53A85EF30A077832764
:10224000C4FE032704FE98C38327C4FE0327C4FDEE
:10225000D8C38327C4FE0347B4FE2384E700832743
:10226000C4FE032744FED8C7C1460546854503255D
:1022700004FEEFE0FFC8D146054685450325C4FDB1
:10228000EFE01FC80100B250225445618280011165
:1022900022CE00102326A4FEAE87A305F4FED56748
:1022A0000327C4FE0A079387073EBA979C433E87DD
:1022B0008347B4FEC207C1832316F7000100D56728
:1022C0000327C4FE0A079387073EBA979C4383D728
:1022D0008700C207C18393F70708F5F3D567032783
:1022E000C4FE0A079387073EBA979C4383D7C7006B
:1022F0000100724405618280011122CE0010232664
:10230000A4FEAE872315F4FE8357A4FEA183C20763
:10231000C18393F6F70FD5670327C4FE0A07938797
:10232000073EBA979C433E8793970601C1832316C5
:10233000F7000100D5670327C4FE0A079387073E0D
:10234000BA979C4383D78700C207C18393F70708D6
:10235000F5F38357A4FE93F6F70FD5670327C4FE62
:102360000A079387073EBA979C433E8793970601D7
:10237000C1832316F7000100D5670327C4FE0A07AF
:102380009387073EBA979C4383D78700C207C183D0
:1023900093F70708F5F3010072440561828001118B
:1023A00022CE00102326A4FEAE872322C4FE2320C3
:1023B000D4FEA305F4FED5670327C4FE0A0793875E
:1023C000073EBA979C433E878347B4FEC207C1834A
:1023D0002316F7000100D5670327C4FE0A07938779
:1023E000073EBA979C4383D78700C207C18393F700
:1023F0000708F5F3D5670327C4FE0A079387073E4E
:10240000BA979C4383D7C70095A0D5670327C4FE1E
:102410000A079387073EBA979C432396070001005B
:10242000D5670327C4FE0A079387073EBA979C43E4
:1024300083D78700C207C18393F70708F5F3D567F1
:102440000327C4FE0A079387073EBA979C4383D7A6
:10245000C70093960701C182832744FE13871700A4
:102460002322E4FE13F7F60F2380E700832704FE00
:102470001387F7FF2320E4FEC9FB010072440561C6
:1024800082805D7186C6A2C480082326A4FC232412
:10249000B4FC2322C4FC2320D4FC232EE4FA232CF6
:1024A000F4FA232A04FBD5670327C4FC0A079387A1
:1024B000073EBA979C433E85EF60806D8545054594
:1024C000EF60805B032704FC930730126313F7026D
:1024D000032784FB93074012631DF7000327C4FB07
:1024E000930750126317F70085450545EF50107D9F
:1024F0001DA8032704FC89679387A7146315F702B7
:10250000032784FB89679387B714631EF7000327AB
:10251000C4FB89679387C7146317F7008545371590
:102520002000EF50B0798327C4FC91E7854505650D
:10253000EF60805425A00327C4FC85476317F7008C
:1025400085451165EF60A05711A80327C4FC894792
:102550006316F70085452165EF606056832704FC0C
:1025600093F7F70F93068031054685453E85EFE0EA
:102570003F998327C4FB93F7F70F930680310546F5
:1025800085453E85EFE0DF97032784FBC167F91798
:10259000630DF700832784FB93F7F70F93068034CE
:1025A000054681453E85EFE0BF95032744FB930731
:1025B000F00F630DF700832744FB93F7F70F9306A3
:1025C0000031014685453E85EFE09F93232E04FCB4
:1025D000232004FE232204FE232404FE231604FEEB
:1025E000231E04FC93074010231FF4FC231004FE59
:1025F000032784FC85476305F702832784FC81CF8A
:10260000032784FC89476303F702032784FC8D4773
:102610006304F7020DA8231104FE231204FE25A073
:10262000231104FE85472312F4FE31A889472311A4
:10263000F4FE231204FE01A889472311F4FE854706
:102640002312F4FE0100231704FE03A7418283270F
:1026500044FCB357F7022317F4FE03A741828327F4
:1026600044FCB377F70291E78357E4FEFD17231785
:10267000F4FE0357E4FE9307F00763F7E7009307C0
:1026800080032317F4FE49A80357E4FE9307F003E1
:1026900063F7E700930700032317F4FEB5A8035779
:1026A000E4FEFD4763F7E700930780022317F4FE7B
:1026B000A5A00357E4FEBD4763F7E70093070002B8
:1026C0002317F4FE91A80357E4FE9D4763F6E70045
:1026D000E1472317F4FE89A00357E4FE8D4763F614
:1026E000E700C1472317F4FE05A80357E4FE85471A
:1026F00063F6E700A1472317F4FE39A88357E4FEE9
:1027000081C7231704FE09A813067021D567938596
:10271000C7CA0145EF30002A8357E4FE2314F4FEB4
:10272000930700202313F4FE231504FE9D47231670
:10273000F4FED5670327C4FC0A079387073EBA97C0
:102740009C433E879307C4FDBE853A85EF60A04B4E
:10275000D5670327C4FC0A079387073EBA979C43B3
:1027600085453E85EF60A0590100B6402644616171
:102770008280797122D60018232EA4FC232CB4FC6D
:102780008547A307F4FE0327C4FD0A07938701A228
:10279000BA979C4399EB0327C4FD0A07938701A2CC
:1027A000BA97032784FD98C315A00327C4FD0A0721
:1027B000938701A2BA979C43032784FD6316F70011
:1027C0008547A307F4FE19A0A30704FE8347F4FE80
:1027D0003E85325445618280011106CE22CC001024
:1027E0002326A4FE8327C4FE81EB854585671385D8
:1027F0000780EF6060286DA80327C4FE8547631734
:10280000F70085450545EF60802B5DA00327C4FEDA
:1028100089476317F70085450945EF60402A49A8B5
:102820000327C4FE8D476317F70085451145EF6008
:102830000029BDA80327C4FE91476317F70085450B
:102840002145EF60C027ADA00327C4FE954763175D
:10285000F70085454145EF60802699A80327C4FE0F
:1028600099476318F700854513050002EF6020259E
:1028700081A00327C4FE9D476317F70085450965BE
:10288000EF60801F35A00327C4FEA1476318F7003F
:10289000854537050800EF60201E19A80327C4FEF0
:1028A000A5476317F700854537051000EF60C01C8A
:1028B0000100F240624405618280797106D622D41B
:1028C0000018232EA4FCB7370140938707C02326A6
:1028D000F4FE0327C4FDA54763ECE7088327C4FD86
:1028E00013972700D5679387C73EBA979C43828783
:1028F000B7370140938707C02326F4FE95A8B70792
:1029000000402326F4FEADA0B707004093870740A0
:102910002326F4FEB1A8B71700409387078023262B
:10292000F4FEB9A0B7170040938707C02326F4FE32
:1029300081A0B71700402326F4FE1DA8B71700405A
:10294000938707402326F4FE25A0B73701409387DD
:1029500007402326F4FE29A8B7570140938707C0F4
:102960002326F4FE31A0B75701402326F4FE0100D0
:1029700085450325C4FEEF60D0460100B2502254C5
:1029800045618280797122D60018232EA4FCB737C6
:102990000140938707C02326F4FE231504FE032776
:1029A000C4FDA54763ECE7088327C4FD1397270000
:1029B000D56793874741BA979C438287B7370140D1
:1029C000938707C02326F4FE95A8B7070040232667
:1029D000F4FEADA0B7070040938707402326F4FE1E
:1029E000B1A8B7170040938707802326F4FEB9A04B
:1029F000B7170040938707C02326F4FE81A0B717BE
:102A000000402326F4FE1DA8B71700409387074017
:102A10002326F4FE25A0B7370140938707402326DD
:102A2000F4FE29A8B7570140938707C02326F4FE78
:102A300031A0B75701402326F4FE01000327C4FD4F
:102A40000A07938781A4BA9798438947631FF700C1
:102A50008327C4FE83D747021397070141838D471D
:102A6000B357F7022315F4FE39A08327C4FE83D79A
:102A700047022315F4FE8357A4FE3E853254456178
:102A80008280797122D60018232EA4FCB73701402A
:102A9000938707C02326F4FE0327C4FDA54763ECF4
:102AA000E7088327C4FD13972700D5679387C7439B
:102AB000BA979C438287B7370140938707C0232684
:102AC000F4FE95A8B70700402326F4FEADA0B70793
:102AD0000040938707402326F4FEB1A8B7170040B3
:102AE000938707802326F4FEB9A0B7170040938789
:102AF00007C02326F4FE81A0B71700402326F4FE6A
:102B00001DA8B7170040938707402326F4FE25A091
:102B1000B7370140938707402326F4FE29A8B7570B
:102B20000140938707C02326F4FE31A0B757014028
:102B30002326F4FE01008327C4FE2392070201002E
:102B4000325445618280797106D622D40018232E32
:102B5000A4FC232CB4FC85450325C4FD1939AA87A0
:102B60003E871306200FD567938587CF3A85EF20E0
:102B700070640327C4FD0A07938701A2BA9705472B
:102B800098C3B7370140938707C02326F4FE032775
:102B9000C4FDA54763ECE7088327C4FD139727000E
:102BA000D56793874746BA979C438287B7370140DA
:102BB000938707C02326F4FE95A8B7070040232675
:102BC000F4FEADA0B7070040938707402326F4FE2C
:102BD000B1A8B7170040938707802326F4FEB9A059
:102BE000B7170040938707C02326F4FE81A0B717CC
:102BF00000402326F4FE1DA8B71700409387074026
:102C00002326F4FE25A0B7370140938707402326EB
:102C1000F4FE29A8B7570140938707C02326F4FE86
:102C200031A0B75701402326F4FE01000325C4FD5F
:102C300065360327C4FD0A07938781A4BA97032743
:102C400084FD98C3232004FE232204FE231404FEE3
:102C5000032784FD85476315F702FD572312F4FE11
:102C600003A74182B7470F0093870724B357F702A2
:102C7000C207C183FD17C207C1832310F4FE2DA82C
:102C8000032784FD89476314F702FD572312F4FEDE
:102C900003A741828567938787BBB357F702C207B3
:102CA000C183FD17C207C1832310F4FE31A0FD5775
:102CB0002312F4FE231004FE231304FE231104FE4A
:102CC000230404FE930704FEBE850325C4FEEF60C3
:102CD000A00885450325C4FEEF60B0100100B25086
:102CE000225445618280011122CE00102326A4FEC9
:102CF000AE87A305F4FE0100D5670327C4FE0A07CB
:102D00009387C748BA979C4383D70700C207C183FC
:102D100093F70708F5D3D5670327C4FE0A079387FF
:102D2000C748BA979C433E878347B4FEC207C18316
:102D30002312F7000100724405618280011106CE62
:102D400022CC00102326A4FE2324B4FE2322C4FE9A
:102D5000832784FEB337F00093F7F70F3E871306FF
:102D60001004D567938547D43A85EF20B04429A84D
:102D7000832784FE138717002324E4FE83C70700FC
:102D8000BE850325C4FE8537832744FE1387F7FFDE
:102D90002322E4FEF1FF0100F240624405618280DB
:102DA000011106CE22CC00102326A4FE2324B4FE5B
:102DB000832784FEB337F00093F7F70F3E8713069F
:102DC0000005D567938547D43A85EF20B03E39A8F2
:102DD000832784FE138717002324E4FE83870700DC
:102DE00093F7F70FBE850325C4FEF53D832784FEC8
:102DF00083870700F1FF0100F24062440561828091
:102E0000011106CE22CC00102326A4FEAE87A30516
:102E1000F4FED5670327C4FE0A079387C748BA970D
:102E20009C433E878347B4FE3E86930550523A85C5
:102E3000EF6010731387C1888327C4FEBA9783C7D6
:102E4000070081453E85EF30B0048347B4FE81CF53
:102E50001387C1888327C4FEBA9783C707003E85BE
:102E6000EF30407F19A81387C1888327C4FEBA9723
:102E700083C707003E85EF30C07F0100F240624407
:102E800005618280011122CE00102326A4FE232496
:102E9000B4FED5670327C4FE0A079387C748BA97CD
:102EA0009C4383D70700C207C18393F707028DC7EE
:102EB000D5670327C4FE0A079387C748BA979C4380
:102EC00083D74700C207C18313F7F70F832784FE18
:102ED0002380E700854711A081473E857244056144
:102EE0008280797106D622D40018232EA4FC232CCC
:102EF000B4FC232AC4FC2328D4FC032744FD8327E5
:102F000004FD3D8F8327C4FDB207F98F93B71700E7
:102F100093F7F70F3E871306A00AD567938547D42A
:102F20003A85EF203029832744FD13D78700832774
:102F300004FDA183B307F74093B7170093F7F70F8A
:102F40003E871306B00AD567938547D43A85EF20AC
:102F50007026832744FD93F7F70FE1460146854528
:102F60003E85EFD0FFF9832704FD93F7F70F930613
:102F70008004014681453E85EFD09FF88545054593
:102F8000EF50902F032744FDC167FD17F98F0D67A0
:102F9000130707386385E7200D6713070738636950
:102FA000F7040567130757166381E71605671307CC
:102FB0005716636FF7001307F022638AE70C1307B5
:102FC00060306381E710130760126388E70855A635
:102FD000096713078736638AE7160D671307071219
:102FE0006385E71809671307A7146380E71451A6E0
:102FF00015671307A738638CE72615671307A738EB
:103000006362F702116713078738638EE71E15673F
:10301000130787126383E722116713074712638A36
:10302000E71A81AE19671307C7386386E72A19675D
:103030001307C7386368F7001967130767106382BF
:10304000E72605AE1D671307E7106380E72C1D67B1
:103050001307E7386385E72E29AEB7070140D44F41
:10306000B7070140370700FC7D17758FD8CFB7072A
:103070000140D843B70701406D9BD8C3B707014053
:10308000D843B707014013674700D8C3DDA4B7078B
:103090000140D44FB7070140370700FC7D17758FFB
:1030A000D8CFB7070140D44FB70701403707000416
:1030B000558FD8CFB7070140D843B70701406D9B64
:1030C000D8C345ACB7070140D44FB7070140370715
:1030D00000FC7D17758FD8CFB7070140D44FB707D5
:1030E000014037070004558FD8CFB7070140D843B8
:1030F000B70701406D9BD8C3B7070140D843B70756
:10310000014013674700D8C3ADA4B7070140D843B7
:10311000B70701405D9BD8C3B7070140D843B70745
:10312000014013678700D8C3A9A4B7070140D8435B
:10313000B70701401D9BD8C3B7070140D843B70765
:10314000014013678700D8C32DA4B7070140D843B7
:10315000B70701401D9BD8C3B7070140D843B70745
:10316000014013678701D8C329A4B7070140D44F92
:10317000B70701403707FDFF7D17758FD8CFB70719
:103180000140D44F832744FDA18313970701B7075C
:1031900003007D8FB7070140558FD8CFD9AAB70755
:1031A0000140D44FB70701403707FDFF7D17758FEA
:1031B000D8CFB7070140D44F832744FDA18313978D
:1031C0000701B70703007D8FB7070140558FD8CFA0
:1031D0004DA2B7070140D44FB70701403707F4FFAE
:1031E0007D17758FD8CFB7070140D44F832744FD93
:1031F000A18313972701B7070C007D8FB707014004
:10320000558FD8CFBDA2B7070140D44FB7070140B3
:103210003707F4FF7D17758FD8CFB7070140D44F1C
:10322000832744FDA18313972701B7070C007D8FE7
:10323000B7070140558FD8CF2DAAB7070140D44F0B
:10324000B70701403707D0FF7D17758FD8CFB70775
:103250000140D44F832744FDA18313974701B7074B
:1032600030007D8FB7070140558FD8CF19A2B7071F
:103270000140D44FB70701403707D0FF7D17758F46
:10328000D8CFB7070140D44F832744FDA1831397BC
:103290004701B70730007D8FB7070140558FD8CF62
:1032A000C9A8B7070140D44FB7070140370740FF0F
:1032B0007D17758FD8CFB7070140D44F832744FDC2
:1032C000A18313976701B707C0007D8FB70701403F
:1032D000558FD8CF79A8B7070140D44FB707014021
:1032E000370740FF7D17758FD8CFB7070140D44F00
:1032F000832744FDA18313976701B707C0007D8F23
:10330000B7070140558FD8CFADA0B7070140D44FC4
:10331000B7070140370700FD7D17758FD8CFB70776
:103320000140D44F832744FDA18313978701B7073A
:1033300000037D8FB7070140558FD8CF1DA8B70771
:103340000140D44FB7070140370700FD7D17758F47
:10335000D8CFB7070140D44F832744FDA1831397EB
:103360008701B70700037D8FB7070140558FD8CF7E
:1033700001008327C4FD91E785451165EF50C06FBB
:1033800069A80327C4FD85476318F70085453705FD
:103390000200EF50C07251A00327C4FD8947631893
:1033A000F700854537050400EF506071BDA0032785
:1033B000C4FD8D476318F700854537050800EF50B9
:1033C0000070A1A80327C4FD91476318F700854545
:1033D00037051000EF50A06E89A00327C4FD954764
:1033E0006318F700854513050004EF50406D35A0C4
:1033F0000327C4FD99476318F700854513050008A6
:10340000EF50E06B19A80327C4FD9D476317F70031
:10341000854513050010EF50806A232004FE232207
:1034200004FE232404FE232604FE832784FD232098
:10343000F4FE231204FE231304FE231404FE2316B9
:1034400004FEB1472315F4FED5670327C4FD0A0720
:103450009387C748BA979C433E87930704FEBE856F
:103460003A85EF60A066D5670327C4FD0A079387F6
:10347000C748BA979C4385453E85EF6070080100B8
:10348000B250225445618280411106C622C4000810
:10349000A1461386418A8145138501A7EF20304F4D
:1034A0000100B240224441018280411106C622C47B
:1034B000000883A7018B0547638BE7006386070C31
:1034C0000947638DE7000D47638FE702D9A083A703
:1034D000C18A1387170023A6E18A65A883A7C18A3A
:1034E0001387170023A6E18A03A7C18AA54763FFB4
:1034F000E708B70700209387C7009C4B1167D8CB1C
:1035000023A6018A61A003A7418B85476312F708B0
:103510001305F008EFD0BF9AAA87B9CF1945EFF08D
:103520006FC6AA873E8783A7C18A1D8F930760094C
:1035300063F0E7061945EFF0CFD483A7C18AD3F72C
:1035400017D05385F720EFD0B036D56703A607D93B
:1035500083A647D9EFC0207BAA872E883E85C285E7
:10356000EFD0D01DAA871397070141832394E180F0
:10357000094723AAE18A29A81945EFF0AFC0AA8715
:103580003E8723A6E18A29A0010021A0010011A005
:1035900001000100B240224441018280411106C66F
:1035A00022C4000883A7018B0947637CF7000D47FD
:1035B000639AE7001945EFF0CFCC054723AAE18ACB
:1035C00011A001000100B24022444101828041115A
:1035D00006C622C4000883A7418B05476376F7001F
:1035E00009476383E7022DA01945EFF0AFB9AA8719
:1035F0003E879D679387F75263FBE70009671307D0
:1036000007A92394E18021A023AA018A11A0010027
:1036100083D781803E85B2402244410182800111DE
:1036200006CE22CC0010232604FE239401800547F9
:1036300023A8E18A93068002014681451305F0081C
:10364000EFD01F8C93068002014681451305E008E8
:10365000EFD01F8B930740062315F4FEA5A013059A
:10366000F008EFD0DF85AA87A9C31305E008EFD0E3
:103670001F85AA879DCB0D4723A8E18A23AA018A2B
:10368000C1451305F008EFD08FEBB1451305E008F5
:10369000EFD0EFEA85451945EFF0EFCA1945EFF095
:1036A0004FBE1945EFF06FA10DA803A74182B717D0
:1036B0007A0093870720B357F702930540063E85AB
:1036C000EFC05FEB8317A4FE1397070141837D17BB
:1036D000420741832315E4FED9F38317A4FE63D187
:1036E0000708B1451305F008EFD06FE5C146014664
:1036F00085451305E008EFD0BF8023A6018AB707F0
:1037000000209387C7009C4B116798CB03A7418289
:10371000B7177A0093870720B357F7029305200D58
:103720003E85EFC03FE5B70700209387C7009C4B5D
:103730001167D8CB03A7C18A994763FDE70003A7A8
:10374000C18AA54763E8E700094723A8E18A23A6C1
:10375000018A39A023A8018A85472326F4FE0100A7
:103760008327C4FE3E85F240624405618280797100
:1037700006D622D40018AA87232CB4FC232AC4FC22
:10378000A30FF4FCB70700209387C7009C471307DB
:103790000040D8CB8347F4FD93E707F813F7F70F02
:1037A000832744FD93861700930744FE3E86BA851F
:1037B0000945EFE0DFBEB70700209387C7009C47AD
:1037C0001307004098CB232604FE3DA08327C4FEA8
:1037D00013871700832784FD93861700232CD4FCBE
:1037E000930604FF3697034747FF2380E7008327AC
:1037F000C4FE85072326F4FE8327C4FE032744FD69
:10380000E3E6E7FC0100B2502254456182800111D9
:1038100006CE22CC0010930784FE1946BE853145A2
:10382000B937834794FEA20713970701418783475F
:1038300084FEC207C187D98F139707014187239F51
:10384000E18A8347B4FEA2071397070141878347A4
:10385000A4FEC207C187D98F139707014187239020
:10386000E18C8347D4FEA207139707014187834762
:10387000C4FEC207C187D98F1397070141872391DF
:10388000E18C0100F240624405618280011106CEA4
:1038900022CC0010930784FE1946BE854945C13DE0
:1038A000834794FEA207139707014187834784FE4D
:1038B000C207C187D98F139707014187239CE18AEB
:1038C0008347B4FEA2071397070141878347A4FEED
:1038D000C207C187D98F139707014187239DE18ACA
:1038E0008347D4FEA2071397070141878347C4FE8D
:1038F000C207C187D98F139707014187239EE18AA9
:103900000100F240624405618280397106DE22DCEA
:1039100080002326A4FC8547A307F4FE231604FE9B
:10392000232404FE232E04FC83D7C18C3E879307F7
:1039300000236316F700A5472324F4FE29A0A1471E
:103940002324F4FE010049A0930750FA2300F4FE5B
:10395000832784FE8A070327C4FCBA97839707004E
:1039600093F7F70FA300F4FE832784FE8A0703274B
:10397000C4FCBA97839727002313F4FE835764FE91
:10398000A183C207C18393F7F70F2301F4FE835786
:1039900064FE93F7F70FA301F4FE930704FE1146AC
:1039A000BE851145EFF08FB903A7418289679387E0
:1039B00007F4B357F70289453E85EFC0BFBB8327A5
:1039C00084FEFD172324F4FE032784FE9307E00FF3
:1039D000E3FCE7F6138501A7EF20A0372A87894784
:1039E00063FFE7028D47232EF4FC1307C4FD930702
:1039F00004FE81463A86BE85138501A7EF20204B41
:103A0000034714FE9307F00F6308F700034724FEF3
:103A10009307F00F6315F700A30704FE35A003A773
:103A200041828967938707F4B357F70285453E853E
:103A3000EFC05FB48357C4FE138717002316E4FE5C
:103A40001307F007E378F7F88347F4FE3E85F2505A
:103A5000625421618280397106DE22DC80002326D7
:103A6000A4FCA30704FE231604FE232404FE232E35
:103A700004FC83D7C18C3E87930700236316F700AD
:103A8000A5472324F4FE29A0A1472324F4FE010026
:103A9000832784FEFD172324F4FE29AA03D7C18CB3
:103AA0009307F02263EDE700832784FE8A0703274C
:103AB000C4FCBA9703970700A5476307F70E93075F
:103AC00050FA2300F4FEC557A300F4FE832784FEBA
:103AD0008A070327C4FCBA97839707002313F4FED1
:103AE000835764FEA183C207C18393F7F70F2301B5
:103AF000F4FE835764FE93F7F70FA301F4FE9307D8
:103B000004FE1146BE851145EFF04FA3231604FEB7
:103B1000138501A7EF20E0232A87894763F7E7048D
:103B20008D47232EF4FC1307C4FD930704FE814642
:103B30003A86BE85138501A7EF206037834714FEC0
:103B4000A20793960701C186834724FE13970701B6
:103B50004187832784FE8A070326C4FCB297558FCA
:103B6000420741872391E70035A003A74182896777
:103B7000938707F4B357F70285453E85EFC09F9FB3
:103B80008357C4FE138717002316E4FE1307F007BC
:103B9000E370F7F80357C4FE9307000863F7E700E4
:103BA0008547A307F4FE19A80100832784FEFD17AB
:103BB0002324F4FE832784FEE39207EE8347F4FE7A
:103BC0003E85F250625421618280011106CE22CCE2
:103BD0000010A30704FE9307F4FEBE851145EFF025
:103BE0006FAA0347F4FE9307500A6316F700138584
:103BF00001A7EF2000068347F4FEBE85138501A7C9
:103C0000EF2060190100F240624405618280411199
:103C100022C6000805472382E18C0100324441019D
:103C20008280011106CE22CC0010231704FE231639
:103C300004FE232004FE930750FA2302F4FEC55726
:103C4000A302F4FE9307200F2315F4FE8357A4FE6E
:103C5000A183C207C18393F7F70F2303F4FE8357B1
:103C6000A4FE93F7F70FA303F4FE930744FE114657
:103C7000BE851145EFF08F8C138501A7EF20600DF5
:103C80002A87894763F0E7048D472320F4FE130752
:103C900004FE930744FE81463A86BE85138501A73C
:103CA000EF20E020834754FEA207139707014187C6
:103CB000834764FEC207C187D98FC207C187231615
:103CC000F4FE35A003A741828967938707F4B357B1
:103CD000F70285453E85EFC0FF898357E4FE1387D1
:103CE00017002317E4FE1307F007E377F7F883576D
:103CF000C4FE3E85F240624405618280397106DE71
:103D000022DC8000A30704FE054723A4E18C93076F
:103D1000C4FD1307C004930620061306401F814507
:103D20003E85EFE0AFCB03A741828967938707F415
:103D3000B357F7029305800C3E85EFC0BF8313078E
:103D4000C4FDB7070020938507023A85EFA0A05A6B
:103D5000AA87638A070C23A4018C916793862706A0
:103D600091671386C7048967938507581145EFF05B
:103D70004F9785451145EFF0AF8803A741828967CA
:103D8000938707F4B357F7029305800C3E85EFC085
:103D90006FFEB74700001386E7C0B7470000938562
:103DA000A7BC0D45EF10002DEFF00FEE9D3DAA874B
:103DB0003E872396E18CB707002013850702EFF0BA
:103DC000DFB4AA878DC79306701BD567138687D982
:103DD000D5679385C7DE0145EF1050440146814504
:103DE0000145EF1020298547A307F4FE2DA8B7074A
:103DF000002013858704EFF01FC6AA878DC793069E
:103E0000301CD567138687D9D567938587E0014530
:103E1000EF10D040014681450145EF10A0258547B0
:103E2000A307F4FE0100B74700001386E7C0B747B9
:103E300000009385A7BC0D45EF10C02391473EC4F9
:103E400095473EC299473EC09308900213088002EE
:103E5000930760021307B0049306900413068004CE
:103E6000A9452545EFC0AFFA8546896713860758EF
:103E70008145B70700201385C751EFC0DF8A83470C
:103E8000F4FE3E85F250625421618280011106CE1B
:103E900022CC0010AA87A307F4FEB707002093875F
:103EA000C700DC47414798CBB70700209387C7007E
:103EB000DC474147D8CBB70700209387C700DC47D2
:103EC00013070008D8CB8347F4FEBE850545EFE015
:103ED0000FBCB70700209387C700DC47414798CB4A
:103EE000B70700209387C700DC471307000898CB6B
:103EF000B70700209387C700DC474147D8CB0100B4
:103F0000F240624405618280011106CE22CC00108D
:103F1000AA8736872317F4FEAE872316F4FEB287EE
:103F20002315F4FEBA872314F4FE83C74181C20728
:103F3000C1830357E4FEB337F70093F7F70F3E87CB
:103F40001306E008D567938547E23A85EF1090267F
:103F500083C75181C207C1830357C4FEB337F7003B
:103F600093F7F70F3E871306F008D567938547E26E
:103F70003A85EF10302483C74181C207C1830357BC
:103F8000A4FEB337F70093F7F70F3E871306000937
:103F9000D567938547E23A85EF10D02183C75181D9
:103FA000C207C183035784FEB337F70093F7F70FB7
:103FB0003E8713061009D567938547E23A85EF10CF
:103FC000701F83A7018D91C703A7018D85476315D6
:103FD000F7081305A0025D3D81450545EFE02FABD5
:103FE0008357E4FE93F7F70F890793F7F70FBE8522
:103FF0000545EFE0CFA981450545EFE04FA983577F
:10400000A4FE93F7F70F890793F7F70FBE850545D1
:10401000EFE0EFA71305B002953D81450545EFE0C0
:104020000FA78357C4FE93F7F70F850793F7F70F92
:10403000BE850545EFE0AFA581450545EFE02FA51D
:10404000835784FE93F7F70F850793F7F70FBE8525
:104050000545EFE0CFA359A01305A002053D81451A
:104060000545EFE0CFA28357E4FE93F7F70F8507EE
:1040700093F7F70FBE850545EFE06FA18145054534
:10408000EFE0EFA08357A4FE93F7F70F850793F7B0
:10409000F70FBE850545EFE08F9F1305B002FD3396
:1040A00081450545EFE0AF9E8357C4FE93F7F70FB8
:1040B000890793F7F70FBE850545EFE04F9D8145D2
:1040C0000545EFE0CF9C835784FE93F7F70F8907F0
:1040D00093F7F70FBE850545EFE06F9B1305C00210
:1040E000EFF0DFDA0100F24062440561828079710D
:1040F00006D622D400189307C4FD3E85EF10F016B3
:104100008547231EF4FC83C74181C207C183231F57
:10411000F4FC83C75181C207C1832310F4FE83A737
:1041200001810547638AE70099EF99472301F4FE6F
:10413000A147A301F4FE09A8A1472301F4FEC1474A
:10414000A301F4FE11A00100B74700009387C75BED
:104150002324F4FEB7470000938747172326F4FE75
:104160009307C4FD3E85EF10F0150100B2502254B4
:1041700045618280011106CE22CC001083C74181A7
:104180003E8783C75181B307F7022326F4FEB707A2
:1041900000209387C700DC474147D8CB83C74181C4
:1041A000C207C183FD1713970701418383C751815C
:1041B000C207C183FD17C207C183BE863A86814507
:1041C0000145EFF07FD421A883D7C180BE85054586
:1041D000EFE08F928327C4FEFD172326F4FE83278A
:1041E000C4FEFDF3B70700209387C700DC474147B3
:1041F00098CB0100F240624405618280011122CE19
:1042000000102326A4FE0327C4FE23A8E18C032765
:10421000C4FE854763EBE700130700F8238AE180BB
:10422000130700FAA38AE18009A8130700FA238A7A
:10423000E180130700F8A38AE18001007244056160
:104240008280011122CE0010AA872E872317F4FE48
:10425000BA872316F4FE0357E4FE2395E180035743
:10426000C4FE2396E1800100724405618280011141
:1042700006CE22CC0010AA87AE8632872317F4FE22
:10428000B6872316F4FEBA872315F4FE83C741814F
:10429000C207C1830357E4FEB337F70093F7F70F64
:1042A0003E871306B013D567938547E23A85EF1032
:1042B000607083C75181C207C1830357C4FEB337FF
:1042C000F70093F7F70F3E871306C013D567938562
:1042D00047E23A85EF10006EB70700209387C700CA
:1042E000DC474147D8CB8356C4FE0356E4FE035750
:1042F000C4FE8357E4FEBA853E85EFF0FFC08357C6
:10430000A4FEBE850545EFD03FFFB7070020938789
:10431000C700DC47414798CB0100F2406244056189
:104320008280797106D622D40018AA87AE86328799
:10433000231FF4FCB687231EF4FCBA87A30DF4FCFC
:1043400083C74181C207C1830357E4FDB337F70038
:1043500093F7F70F3E871306C018D567938547E29A
:104360003A85EF10206583C75181C207C183035787
:10437000C4FDB337F70093F7F70F3E871306D01845
:10438000D567938547E23A85EF10C062B7070020F2
:104390009387C700DC474147D8CB83A701810547F6
:1043A000638AE70C639F071EA30704FE75A8834773
:1043B000F4FE1397070141838357E4FDBA971395E1
:1043C000070141818347F4FE139707014183835717
:1043D000E4FDBA971397070141838357C4FDA107F2
:1043E00093960701C1828357C4FD3A86BE85EFF0DC
:1043F000BFB18307B4FD138707FE8346F4FE5966F9
:10440000BA878607BA9786071307C6A9BA97B697D9
:1044100083C70700A306F4FE230704FE25A88347ED
:10442000D4FE858B81CB83D7A180BE850545EFD097
:10443000BFEC39A083D7C180BE850545EFD0DFEB47
:104440008347D4FE8583A306F4FE8347E4FE8507F5
:104450002307F4FE0347E4FE9D47E3F2E7FC8347AE
:10446000F4FE8507A307F4FE0347F4FE9547E3F047
:10447000E7F40DAAA30704FE39AA8347F4FE1397B5
:10448000070141838357E4FDBA97139507014181E2
:104490008347F4FE1397070141838357E4FDBA97DE
:1044A0001397070141838357C4FDBD079396070106
:1044B000C1828357C4FD3A86BE85EFF0FFA483070F
:1044C000B4FD938607FE8347F4FE556792061307F3
:1044D000C74A3697BA9783C707002306F4FE8307B7
:1044E000B4FD938607FE8347F4FEA1075567920645
:1044F0001307C74A3697BA9783C70700A305F4FE88
:10450000230704FE25A88347C4FE858B81CB83D770
:10451000A180BE850545EFD03FDE39A083D7C1809D
:10452000BE850545EFD05FDD8347C4FE8583230646
:10453000F4FE8347E4FE85072307F4FE0347E4FE09
:104540009D47E3F2E7FC230704FE25A88347B4FE5A
:10455000858B81CB83D7A180BE850545EFD0DFD980
:1045600039A083D7C180BE850545EFD0FFD88347EA
:10457000B4FE8583A305F4FE8347E4FE8507230785
:10458000F4FE0347E4FE9D47E3F2E7FC8347F4FEB5
:104590008507A307F4FE0347F4FE9D47E3FFE7EC1E
:1045A00011A00100B70700209387C700DC474147EF
:1045B00098CB0100B250225445618280797106D6B1
:1045C00022D40018AA872E87232CC4FC231FF4FCB6
:1045D000BA87231EF4FC83C74181C207C1830357F6
:1045E000E4FDB337F70093F7F70F3E871306D01DAE
:1045F000D567938547E23A85EF10C03B83C7518169
:10460000C207C1830357C4FDB337F70093F7F70F11
:104610003E871306E01DD567938547E23A85EF1084
:104620006039231704FE79A883A701810547638AAF
:10463000E70489C709476386E70869A00357E4FED2
:10464000BA878607BA97860713970701418383576E
:10465000E4FDBA9793960701C1828357E4FE0327CE
:1046600084FDBA97038707008357C4FD3A86BE8549
:104670003685EFF01FCB8357E4FE85072317F4FE42
:1046800091A08357E4FE8E07139707014183835758
:10469000E4FDBA9793960701C1828357E4FE03278E
:1046A00084FDBA97038707008357C4FD3A86BE8509
:1046B0003685EFF01FC78357E4FE85072317F4FE06
:1046C00011A001008357E4FE032784FDBA97838776
:1046D0000700B9FB0100B250225445618280397154
:1046E00006DE22DC8000AA872324C4FC3687231739
:1046F000F4FCAE872316F4FCBA87A303F4FC83C74B
:104700004181C207C1830357E4FCB337F70093F735
:10471000F70F3E8713062020D567938547E23A8539
:10472000EF10402983C75181C207C1830357C4FCDE
:10473000B337F70093F7F70F3E8713063020D5679E
:10474000938547E23A85EF10E026834774FCB33740
:10475000F00093F7F70F3E8713064020D567938547
:1047600047E23A85EF100025834774FC93B7B70002
:1047700093F7F70F3E8713065020D567938547E2DE
:104780003A85EF102023832784FC2326F4FE8547F7
:104790002324F4FE9307C4FD314681453E85EFB0E6
:1047A0003FA6834774FC85073E879307C4FD3A867E
:1047B000930500023E85EFB0BFA4034774FCA547F4
:1047C00063EBE70231A8032784FEBA878A07BA970A
:1047D00086072324F4FE834774FCFD17A303F4FC2F
:1047E000834774FCEDF30327C4FE832784FEB3677D
:1047F000F7022326F4FE9307C4FD8325C4FE3E85FD
:10480000EF1050229306C4FD0357C4FC8357E4FC09
:104810003686BA853E85EFF07FDA0100F2506254A9
:1048200021618280397106DE22DC8000AA8727247C
:10483000A4FC36872317F4FCAE872316F4FCB2875A
:10484000A303F4FCBA872303F4FC83C74181C207A6
:10485000C1830357E4FCB337F70093F7F70F3E87A4
:104860001306D024D567938547E23A85EF1080146C
:1048700083C75181C207C1830357C4FCB337F70014
:1048800093F7F70F3E871306E024D567938547E239
:104890003A85EF102012834774FCB337F00093F78A
:1048A000F70F3E871306F024D567938547E23A85D4
:1048B000EF104010834774FC93B7970093F7F70FFE
:1048C0003E8713060025D567938547E23A85EF10AA
:1048D000600E834764FCB337F00093F7F70F3E8711
:1048E00013061025D567938547E23A85EF10800CB3
:1048F000834764FC93B7770093F7F70F3E8713065F
:104900002025D567938547E23A85EF10A00A8727CF
:1049100084FC2726F4FED56787A707E72724F4FE43
:10492000930744FD454681453E85EFB07F8D0347A3
:1049300074FC834764FCBA9789073E87930744FD5C
:104940003A86930500023E85EFB09F8B034774FCC7
:10495000A54763EAE70439A8072784FED56787A738
:1049600047E7D377F7102724F4FE834774FCFD173D
:10497000A303F4FC834774FCE5F38727C4FE539735
:1049800007C0872784FED39707C0B347F70253F7C2
:1049900007D0872784FED377F7100727C4FED37785
:1049A000F7082726F4FE034764FC930744FDBA8505
:1049B0000725C4FE3E85EF105018930644FD0357AB
:1049C000C4FC8357E4FC3686BA853E85EFF01FBFF2
:1049D0000100F2506254216182805D7186C6A2C4DA
:1049E00080082A8E2E832324C4FC3685BA853E8611
:1049F000C2864687F2872317F4FC9A872316F4FCB5
:104A0000AA872313F4FCAE872312F4FCB287231188
:104A1000F4FCB6872310F4FCBA87A30FF4FA83C71B
:104A20004181C207C1830357E4FCB337F70093F712
:104A3000F70F3E871306202AD567938547E23A850C
:104A4000EF00507783C75181C207C1830357C4FC6D
:104A5000B337F70093F7F70F3E871306302AD56771
:104A6000938547E23A85EF00F074832784FCB337DF
:104A7000F00093F7F70F3E871306402AD56793851A
:104A800047E23A85EF001073232604FE232404FE38
:104A9000231304FE231204FE232004FE232E04FC11
:104AA000B70700209387C700DC474147D8CB03579F
:104AB000E4FC835724FCBA97C207C183FD17139601
:104AC000070141820357C4FC835704FCBA97C2070D
:104AD000C183FD1793960701C1820357C4FC835716
:104AE000E4FCBA853E85EFF02FC2232404FE19A210
:104AF000035744FC832784FE3307F702835704FCE3
:104B0000B357F702232EF4FC232604FEC9A803574B
:104B100064FC8327C4FE3307F702835724FCB35792
:104B2000F7022320F4FE035764FC8327C4FD3307F8
:104B3000F702832704FEBA97032784FCBA9783C73A
:104B400007002312F4FE8347F4FBB5E3835744FECA
:104B50008D83C207C183AE072313F4FE835744FE3F
:104B60008983C207C1839607C207C18793F7077E6F
:104B7000139707014187831764FED98FC207C18746
:104B80002313F4FE835744FE8D83C207C183FD8B3C
:104B9000139707014183835764FED98F2313F4FED3
:104BA000835764FEBE850545EFD00FF525A08347EA
:104BB000F4FBC207C183035744FE6377F7008145C6
:104BC0000545EFD06FF339A0C1679385F7FF054521
:104BD000EFD08FF28327C4FE85072326F4FE835788
:104BE00024FC0327C4FEE364F7F2832784FE8507D1
:104BF0002324F4FE835704FC032784FEE36AF7EEC4
:104C0000B70700209387C700DC47414798CB0100D6
:104C1000B640264461618280411106C622C4000864
:104C20001308F00FC167F91705671307F7028566C8
:104C30009386D60237A64A04130606208145054509
:104C4000EFD03F84C1460146854513057006EFC08D
:104C50002FABC1460146854513057002EFC04FAA30
:104C6000C1460546854513054006EFC06FA9C146FC
:104C70000546854513050006EFC08FA883A7018D63
:104C80003E85EFF0AFD703D7A18083D7C180BE8523
:104C90003A85EFF00FDBEFF08FC5B7070020938761
:104CA000C700DC4313070008D8CB03A741828967FC
:104CB000938707F4B357F702A9453E85EFB09F8B62
:104CC000B70700209387C700DC431307000898CB81
:104CD00003A741828967938707F4B357F7029305C7
:104CE00080073E85EFB01F89B70700209387C70074
:104CF000DC474147D8CB4545EFF04F9903A74182A8
:104D00008967938707F4B357F702930580073E85B9
:104D1000EFB05F861305100BEFF04F978545054503
:104D2000EFD0EFD69305C0020545EFD04FD69305DF
:104D3000D0020545EFD0AFD51305200BEFF00F954E
:104D400085450545EFD0AFD49305C0020545EFD0AA
:104D50000FD49305D0020545EFD06FD31305300B68
:104D6000EFF0CF9285450545EFD06FD29305C00295
:104D70000545EFD0CFD19305D0020545EFD02FD117
:104D800085450545EFD0AFD09305C0020545EFD06E
:104D90000FD09305D0020545EFD06FCF1305400B20
:104DA000EFF0CF8E9D450545EFD06FCE1305000C7B
:104DB000EFF0CF8D9305200A0545EFD04FCD894503
:104DC0000545EFD0CFCC930540080545EFD02FCC5B
:104DD0001305100CEFF08F8B9305500C0545EFD0A9
:104DE0000FCB1305200CEFF06F8AA9450545EFD0D6
:104DF0000FCA81450545EFD08FC91305300CEFF080
:104E0000EF889305A0080545EFD06FC89305A00271
:104E10000545EFD0CFC71305400CEFF02F87930562
:104E2000A0080545EFD0AFC69305E00E0545EFD0CD
:104E30000FC61305500CEFF06F85B9450545EFD04F
:104E40000FC513056003EFF06F8483A7018D05473D
:104E50006380E70281CB09476381E7020D476384E2
:104E6000E70205A89305000C0545EFD04FC215A039
:104E700081450545EFD0AFC129A89305000A054536
:104E8000EFD0EFC039A0930500060545EFD02FC045
:104E900001001305000EEFE07FFFBD450545EFD093
:104EA0000FBFE9450545EFD08FBEBD450545EFD0A5
:104EB0000FBEE1450545EFD08FBD9305F0020545D6
:104EC000EFD0EFBC930580020545EFD04FBC9305B2
:104ED00000020545EFD0AFBB930520020545EFD09A
:104EE0000FBBFD450545EFD08FBAED450545EFD029
:104EF0000FBA930530020545EFD06FB993057003E3
:104F00000545EFD0CFB881450545EFD04FB89D4559
:104F10000545EFD0CFB789450545EFD04FB7C1451F
:104F20000545EFD0CFB61305100EEFE03FF6BD45B7
:104F30000545EFD0CFB5ED450545EFD04FB5BD45A3
:104F40000545EFD0CFB4DD450545EFD04FB493050F
:104F500030030545EFD0AFB39305C0020545EFD050
:104F60000FB3930590020545EFD06FB29305E002B1
:104F70000545EFD0CFB1930500030545EFD02FB124
:104F8000930500030545EFD08FB0930590030545C9
:104F9000EFD0EFAF9305F0030545EFD04FAF81455C
:104FA0000545EFD0CFAE9D450545EFD04FAE8D45C1
:104FB0000545EFD0CFADC1450545EFD04FAD130549
:104FC000A002EFE0BFEC81450545EFD04FAC89452D
:104FD0000545EFD0CFAB81450545EFD04FAB9305ED
:104FE00020080545EFD0AFAA1305B002EFE01FEA95
:104FF00081450545EFD0AFA98D450545EFD02FA9D7
:1050000081450545EFD0AFA8930530080545EFD0A1
:105010000FA81305000FEFE07FE785450545EFD0AA
:105020000FA71305600FEFE07FE681450545EFD040
:105030000FA61305A003EFE07FE595450545EFD0EA
:105040000FA513059002EFE07FE4B70700209387D8
:10505000C700DC47414798CBEFF0CF910100B24049
:10506000224441018280411122C6000801003244DD
:1050700041018280011122CE00102326A4FE2324A8
:10508000B4FE2322C4FE0327C4FE23AAE18C832797
:1050900044FE81C7832744FE29A0B75700009387A9
:1050A000670623AEF180832784FE81C7832784FEB1
:1050B00029A0B75700009387670623ACF180010051
:1050C000724405618280411122C60008B717024070
:1050D0009843B71702401367170098C3B7170240E9
:1050E000D443B71702403707FFF8758FD8C3B717F7
:1050F00002409443B71702403707F7FE7D17758FBC
:1051000098C3B71702409443B71702403707FCFF14
:105110007D17758F98C3B7170240D443B717024065
:10512000370781FF7D17758FD8C3B7170240370740
:105130009F0098C70100324441018280797122D6D4
:105140000018232EA4FC232604FE232404FEB717F4
:1051500002409443B71702404167558F98C3B71771
:1051600002409843B7070200F98F2324F4FE8327F7
:10517000C4FE85072326F4FE832784FE91E70327D8
:10518000C4FE8567E31DF7FCB71702409843B707D5
:105190000200F98F89C785472324F4FE19A0232430
:1051A00004FE032784FE85476312F7163717024073
:1051B000B71702405843D8C337170240B717024009
:1051C0005843D8C337170240B71702405843D8C3D3
:1051D000B7170240D443B71702403707C1FF7D1706
:1051E000758FD8C30327C4FDB74795089387074039
:1051F000631BF700B7170240D443B717024041675B
:10520000558FD8C355A80327C4FDB7172707938721
:1052100007E0631CF700B7170240D443B7170240FA
:1052200037073900558FD8C341A80327C4FDB7E716
:10523000B80593870780631CF700B7170240D44373
:10524000B717024037072900558FD8C3B5A00327E9
:10525000C4FDB7A74A0493870720631CF700B7175C
:105260000240D443B717024037071D00558FD8C3FB
:10527000A1A00327C4FDB777DC02938707C0631C96
:10528000F700B7170240D443B717024037071100A1
:10529000558FD8C315A00327C4FDB7376E01938778
:1052A0000760631BF700B7170240D443B7170240EB
:1052B00037070500558FD8C3B71702409443B71777
:1052C000024037070001558F98C30100B71702400D
:1052D0009843B7070002F98FF5DBB7170240D843B0
:1052E000B7170240719BD8C3B7170240D843B7170E
:1052F000024013672700D8C30100B7170240DC4300
:1053000013F7C700A147E31AF7FE11A001A032541A
:1053100045618280011106CE22CC00102326A4FE16
:105320000327C4FE23A2E182EFF0FFD90325C4FEC8
:10533000EFF0DFE0EF10403E0100F2406244056113
:105340008280411122C6000801000100324441015F
:105350008280011106CE22CC0010232604FE2324D5
:1053600004FE232604FE2DA0232404FE01A8EFF052
:105370005FFD832784FE85072324F4FE032784FE34
:10538000C167E366F7FE8327C4FE85072326F4FE84
:105390000327C4FE9307F00FE3F8E7FC0100F24097
:1053A000624405618280411122C600080100324436
:1053B00041018280011106CE22CC00102326A4FEDA
:1053C0008325C4FE0945EFD0BF9D0100F240624431
:1053D00005618280130101D9232611262324812609
:1053E00023229126801C232EA4D8232CB4D8232A30
:1053F000C4D82328D4D8231504FE231404FE231371
:1054000004FE231204FE231104FE032584D9EFC0F9
:105410003045AA87C207C1872313F4FEB73700209F
:1054200083D7C7A999C7B73700209387C7A99C4BD3
:10543000829783C7818D93F7F70F6385074EB73740
:10544000002083D7C7A963890746B7370020938711
:10545000C7A9D447835724FE1397070141879317A1
:105460000701C1838507C207C183C207C187231112
:10547000F4FE93170701C1830326C4D9BE850145F5
:105480008296832784D92326F4FE032584D9EFC08E
:10549000303DAA87C207C1872313F4FEB737002027
:1054A0009387C7A983D727003E87B7370020938704
:1054B000C7A983C76700B347F702C207C187231292
:1054C000F4FE01008327C4FE138717002326E4FEA1
:1054D00083870700E5FB231404FEA1A88327C4FEED
:1054E000FD172326F4FE8327C4FE038707009307D6
:1054F000F002630AF7008327C4FE038707009307BF
:10550000C005631BF700835784FEC207C18385076C
:10551000C207C1832314F4FE835764FEC207C18708
:10552000C207C183FD17C207C183C207C187231306
:10553000F4FE835784FE139707014183854763E890
:10554000E700835764FEC207C187E3D907F8835792
:1055500064FEC207C18763C207028327C4FE8507B2
:105560002326F4FE130704EE0326C4FED5679385B5
:1055700087E73A85EFC0702A1DA8835784FEC207CB
:10558000C18381EF130704EE0326C4FED56793851C
:1055900047E83A85EFC0702819A8130704EE0326E0
:1055A000C4FED567938587E73A85EFC0102723159A
:1055B00004FE05A2231404FE59A0930704EE3E85C1
:1055C000EFC0102A2A87835784FEC207C183BE8694
:1055D0008357A4FEC207C1833E86835744FEC20799
:1055E000C187B307F602B6976367F706835784FE51
:1055F000C207C1833E878357A4FEC207C183BE860C
:10560000835744FEC207C187B387F602BA97035790
:1056100084FE42074183BA86130704FFBA970387C3
:1056200007EF930704FFB6972388E7EA835784FEC2
:10563000C207C1838507C207C1832314F4FE8357C1
:1056400084FEC207C1833E87835744FEC207C187D9
:10565000E345F7F611A00100835784FEC207C1831A
:10566000130704FFBA97238807EAB7370020938708
:10567000C7A903A8C700B73700209387C7A983C766
:105680007700139707014183835724FE9396070100
:10569000C18693970601C1838507C207C183C207EC
:1056A000C1872311F4FE93970601C183B307F70264
:1056B000C207C183130704EA3A86BE8501450298F2
:1056C0008357A4FEC207C1838507C207C183231580
:1056D000F4FE8357A4FEC207C183BE84930704EE81
:1056E0003E85EFC0F0172A87835744FEC207C18763
:1056F000B357F7028507E3EFF4EA130704EE032636
:1057000044D9D567938547E93A85EFC01011B7377B
:1057100000209387C7A903A8C700B7370020938745
:10572000C7A983C77700139707014183835724FED6
:1057300093960701C18693970601C1838507C20727
:10574000C183C207C1872311F4FE93970601C18369
:10575000B307F702C207C183130704EE3A86BE857A
:1057600001450298832704D9638E071A231504FE86
:1057700005A2231404FE59A0032504D9EFC0500E3E
:105780002A87835784FEC207C183BE868357A4FE3F
:10579000C207C1833E86835744FEC207C187B30751
:1057A000F602B6976368F706835784FEC207C18383
:1057B0003E878357A4FEC207C183BE86835744FE3B
:1057C000C207C187B387F602BA973E87832704D9F9
:1057D000BA97035784FE42074183BA8603870700BE
:1057E000930704FFB6972388E7EA835784FEC2072E
:1057F000C1838507C207C1832314F4FE835784FE47
:10580000C207C1833E87835744FEC207C187E34571
:10581000F7F611A00100835784FEC207C183130766
:1058200004FFBA97238807EAB73700209387C7A9F0
:1058300003A8C700B73700209387C7A983C777009D
:10584000139707014183835724FE93960701C1866E
:1058500093970601C1838507C207C183C207C18729
:105860002311F4FE93970601C183B307F702C20721
:10587000C183130704EA3A86BE850145029883571F
:10588000A4FEC207C1838507C207C1832315F4FEA6
:105890008357A4FEC207C183BE84032504D9EFC089
:1058A000207C2A87835744FEC207C187B357F7027B
:1058B0008507E3E0F4ECBDA0930704DA13060010BB
:1058C00081453E85EFA0DF93B73700209387C7A9B6
:1058D0009C470325C4D98297832704D999CF130500
:1058E00004DA032704D9832644D9032684D9D5674B
:1058F000938507EAEFC0607229A8130704DA8326AC
:1059000044D9032684D9D5679385C7EB3A85EFC080
:10591000C070B73700209387C7A99847930704DA68
:105920003E85029701008320C1260324812683241B
:105930004126130101278280797106D622D40018EE
:10594000232EA4FC232CB4FC232AC4FC232604FE0F
:10595000A9A00100D5679387C7489C479305000419
:105960003E85EF40004FAA87F5D7D5679387C74894
:105970009C47BE86832784FD13871700232CE4FCF5
:1059800083870700C207C183BE853685EF40804903
:105990008327C4FE85072326F4FE0327C4FE83273E
:1059A00044FDE348F7FA832744FD3E85B250225474
:1059B00045618280011106CE22CC0010AA872324E3
:1059C000B4FE2322C4FEA307F4FE8347F4FEB1E332
:1059D00083C7818293F7F70F8DCF83C7918D91C3D2
:1059E00001A083C7918D850713F7F70FA38CE18C76
:1059F000EF00D04FEFF03F9B8146032644FE832506
:105A000084FED567138547EDEFF0DF9CEFF07F94C0
:105A1000E5B70100F240624405618280011106CEC3
:105A200022CC0010AA872324B4FE2322C4FE232004
:105A3000D4FEA307F4FE8347F4FE95E383C7818D6C
:105A400093F7F70F91CF832684FE032604FE832568
:105A500044FED567138547EEEFF0DF9711A00100F4
:105A60000100F240624405618280011122CE0010E3
:105A70002326A4FE8327C4FE239007008327C4FEA9
:105A80007D572391E7008327C4FE7D572392E700CB
:105A90008327C4FE7D572383E7008327C4FE7D57F9
:105AA000A383E7008327C4FE23A407008327C4FE43
:105AB00023A607008327C4FE23A807000100724421
:105AC00005618280011122CE00102326A4FE8327C7
:105AD000C4FE03D70700B7370020239EE7A883271B
